:100000000208F902104C54000406650CCA132E199C
:10001000931FF8265D2CC23326398B3FF042000037
:10002000FFFF420054000041004F0042004D00FF1E
:10003000410062004100630041006400410018007B
:1000400041001E004A0021F0EFEEEDECEBEAE9E89A
:10005000E800F0A3E054FBF022115F439701227502
:1000600096AA75965522115F759701538E1FEFC49E
:100070003354E0428E115F439701115F4397022290
:01008000225D
:10008300020DD1E054F7F0A3E054F7F0A3E054F7E6
:10009300F022AF1022D28222020FDC02045FE86456
:1000A30080F8E933E83360110460F0ED33EC33702A
:1000B30009E8FCE9FDEAFEEBFF220460DED3EB9FD7
:1000C300EA9EE99DE8C2E78CF0C2F795F0400CE8A0
:1000D300CCF8E9CDF9EACEFAEBCFFB12042A85D0AE
:1000E300F05804700320D5B3E80470075002B2D56A
:1000F30002046992D5EC0460F7E4CCC0E0C398F83D
:10010300603B94186008400DD0E0FB020441E4FB1F
:10011300FAC9FC8028E830E406E4C9FBE4CAFCE839
:1001230030E305E4C9CACBFCE854076010F8C3E91F
:1001330013F9EA13FAEB13FBEC13FCD8F130F52FA8
:10014300C3E49CFCEF9BFFEE9AFEED99FDD0E0FB30
:10015300EF4E4D4C701222DB03020466EC2CFCEFD5
:1001630033FFEE33FEED33FDED30E7EB020441EFF9
:100173002BFFEE3AFEED39FDD0E0FB50130BBB0035
:1001830003020469ED13FDEE13FEEF13FFEC13FC02
:10019300020441EC4D6011E8497017ED33EC330470
:1001A300600DE4FCFFFEFD22E933E8330470F8023E
:1001B300045F12042A58046009E4CC248150062801
:1001C3005009020469284003020466C0E0EB4A7048
:1001D30044B98006D0E0FB020455EF4E701CBD808D
:1001E30008EBFFEAFEE9FD80EBE98DF0A4FEE5F004
:1001F30002027FE9CDF9EAFEEBFFEF89F0A4FCE50B
:10020300F0CE89F0A42EFFE435F0CD89F0A42DFEC5
:10021300E435F08067EF4E7005BD80D780C3EF8B68
:10022300F0A4ACF0EE8BF0A42CFCE435F0F8EF8AEC
:10023300F0A42CE5F038FCE433CB8DF0A42CFCE5E2
:10024300F03BF8EE8AF0A42CFCE5F038F8E433CF69
:1002530089F0A42CFCE5F038CF3400CE89F0A42F2C
:10026300FFE5F03EFEE433C98DF0A42EFEE5F03940
:10027300CD8AF0A42FFFE5F03EFEE43DFD33D0E050
:10028300FB50070BBB000F020469EC2CFCEF33FFA0
:10029300EE33FEED33FD020441020469EC5D0460BC
:1002A30005E85904700302045F12042A580460F637
:1002B300EC4860F2EC7004FDFEFF22C860DB248191
:1002C300C85009C398600250060204669850CAF5E4
:1002D30082E9294B4A7005AB8202045575F0007C14
:1002E3001A7880C3EF9BEE9AED99400DC3EF9BFF05
:1002F300EE9AFEED99FDE842F0DC23ACF0D0E0FF8E
:10030300D0E0FED0E0FDAB8220E7101BEB60BAEC3F
:100313002CFCEF33FFEE33FEED33FD020441E80323
:10032300F830E705C0F075F000EF2FFFEE33FEED78
:1003330033FD40B830E7C280AA74F8CC6480CCC8DF
:100343006480C8F58204604FC3EB9FF5F0EA9E42D8
:10035300F0E99D42F0E89C45F0603C501DE5825F6A
:10036300FFE582D313CB5BCBF42B5582FB50280ADA
:10037300BA002409B9002008801DE5825BFBE582F1
:10038300D313CF5FCFF4C3132F5582FF50090EBE93
:1003930000050DBD00010CC3EB9FF5F0EA9E42F092
:1003A300E99D42F0E89C45F06007CC4820E701B3A3
:1003B300EC2275F020800E75F010800575F0087D35
:1003C300007E007F003392D530D50312053BEC331A
:1003D3004010EF33FFEE33FEED33FDEC33FCD5F08D
:1003E300ED22E5F0247EA2D513CC92E7CDCEFF22F9
:1003F300EDD2E7CD33EC3392D524814006E4FFFE02
:10040300FDFC22FCE4CFCECDCC24E0501174FF8060
:10041300EDC3CC13CCCD13CDCE13CECF13CF0470FD
:10042300F030D5DE02053BE9D2E7C933E833F89271
:10043300D5EDD2E7CD33EC33FC5002B2D522EC300C
:10044300E7100FBF000C0EBE00080DBD00040BEB40
:100453006014A2D5EB13FCED92E7FD2274FFFCFDC3
:10046300FEFF22E480F8A2D574FF13FC7D80E480B4
:10047300EFED33EC33601004700FED547F700574AF
:100483000292E0227404220422E422ED33EC33606E
:100493000A047003BD8004ECB2E7FC22C0E0EFFB6A
:1004A300EEFAEDF9ECF8120196D0E0F5F0EFFBEE81
:1004B300FAEDF9ECF8120555A3A3A3A3E8C0E0E90C
:1004C300C0E0EAC0E0EBC0E0C0F012019612057193
:1004D300A3A3A3A31200A5D0F0D0E0FBD0E0FAD0F1
:1004E300E0F9D0E0F8D5F0D422E88FF0A4CC8BF07B
:1004F300A42CFCE98EF0A42CFC8AF0EDA42CFCEADD
:100503008EF0A4CDA8F08BF0A42DCC3825F0FDE916
:100513008FF0A42CCD35F0FCEB8EF0A4FEA9F0EB0C
:100523008FF0A4CFC5F02ECD39FEE43CFCEAA42D18
:10053300CE35F0FDE43CFC22C3E49FFFE49EFEE4E1
:100543009DFDE49CFC22E0FCA3E0FDA3E0FEA3E010
:10055300FF22E493FC740193FD740293FE740393EE
:10056300FF22E0F8A3E0F9A3E0FAA3E0FB22E4937F
:10057300F8740193F9740293FA740393FB22ECF079
:10058300A3EDF0A3EEF0A3EFF022A8828583F0D0D1
:1005930083D0821205A41205A41205A41205A4E4B3
:1005A30073E493A3C583C5F0C583C8C582C8F0A30C
:1005B300C583C5F0C583C8C582C82290003F120514
:1005C30081E4FFFE7D807C3F90003FE0F8A3E0F9EB
:1005D300A3E0FAA3E0FB12033C700690003F02077E
:1005E3001890003FE0FCA3E0FDA3E0FEA3E0FF12B0
:1005F3000474FBA3E0FCA3E0FDA3E0FEA3E0FF1271
:100603000474FFB40108E4FFFE7D807C3F22EF64A5
:10061300046029EB64046024EBB40130E4FFFEFDC5
:10062300FC900043E0F8A3E0F9A3E0FAA3E0FB1297
:10063300033C60084006E4FFFEFDFC2290004312E9
:10064300058DFFFFFFFF900043020718E49000476A
:10065300F0A3F0FFFEFDFC90003FE0F8A3E0F9A358
:10066300E0FAA3E0FB12033C505F900043E0FCA3DD
:10067300E0FDA3E0FEA3E0FF1203F3900047EEF0DA
:10068300A3EFF0FDCCEECCEC1203BAC8ECC8C9ED75
:10069300C9CAEECACBEFCB900043E0FCA3E0FDA3B5
:1006A300E0FEA3E0FF1200A1E4FBFAF9F812033C19
:1006B300708A90003FE0FCA3E0FDA3E0FEA3E0FF0F
:1006C30012048E90003F12058190003FE0FCA3E0EE
:1006D300FDA3E0FEA3E0FF120758900043E0F8A358
:1006E300E0F9A3E0FAA3E0FB1201961209CB900014
:1006F30043120581900048E030E017900043E0FC8E
:10070300A3E0FDA3E0FEA3E0FF12048E90004312DA
:100713000581900043E0FCA3E0FDA3E0FEA3E0FF1E
:10072300223E9248DA3ECCCCCD3F2AAAAB40000011
:10073300003F8000003F9837F03FB504F33FD744B4
:10074300FC3E3172173EB172173F0515913EDE5BD9
:10075300D9D2128002C212EDD2E7F8CD33EC3304C2
:10076300700BBD800592D502046902045F40FBD380
:100773001460F2F5F07C3FEE7A00C39496C8948B34
:1007830040230AC89469C8941A401A0AC89468C8CE
:10079300941F40110AC8945AC89425400805F07A5A
:1007A30000CDC2E7CDC0F0900049120581EA2323B2
:1007B300C0E02434F582E43407F583120571120096
:1007C300A5ECC0E0EDC0E0EEC0E0EFC0E0120555DF
:1007D3009000491205651200A1D0E0FBD0E0FAD0E9
:1007E300E0F9D0E0B2E7F812029F900049120581C8
:1007F300900724740312049F9000491205651201A7
:1008030096D0E0600F2440F582E43407F5831205A7
:10081300711200A5900049120581D0E0C3947FFDB9
:10082300E49400FC1203BA7B187A727931783F1290
:1008330001969000491205651200A530120B7BD971
:100843007A5B79DE783E1201962202045F22EDA2E2
:10085300E7D2E7F9EC3340F260F3B4FF08ED547FDD
:1008630070E8020469F82481C2E0C0E0F40428FAC5
:10087300C313FCED92E7FD900040120581EEA2E761
:10088300E9BA7F02C31334009400FA75F091A4E52A
:10089300F013F494FE8AF0A433E5F033248CD313DD
:1008A300FDE492E7FE7F007C3F758302ECC0E0F835
:1008B300EDC0E0F9EEC0E0FAEFC0E0FB8583F09015
:1008C300004012054985F08312029FD0E0FBD0E07F
:1008D300FAD0E0F9D0E0F81200A5ED6480FD30E72E
:1008E300011CD583C7ED33CC33F8D0E0A2E713283E
:1008F300C313CC13FD2278FFE4F6D8FD9000007FEC
:10090300007E04E4F0A3DFFCDEFA75812202094EC7
:10091300020B5FE493A3F8E493A34003F68001F290
:1009230008DFF48029E493A3F85407240CC8C333E5
:10093300C4540F4420C8834004F456800146F6DFB4
:10094300E4800B0102040810204080900006E47E3E
:10095300019360BCA3FF543F30E509541FFEE493A9
:10096300A360010ECF54C025E060A840B8E493A370
:10097300FAE493A3F8E493A3C8C582C8CAC583CA9B
:10098300F0A3C8C582C8CAC583CADFE9DEE780BE53
:1009930033DA929E35B16011377FE5FE39218489C0
:1009A3003AAEC3FF3C1D955B3D6358473E75FDF072
:1009B3003F3172183F800000C2D502046902045F10
:1009C300BD80FA50F3020466ED33EC330460F17B2F
:1009D3003B7AAA79B8783F120196ED33EC3392D57E
:1009E300247B5011A2D570DB500BED4480240450BE
:1009F30004A2D580CEEFFBEEFAEDF9ECF81203F387
:100A0300EFF582F404FC1203BF1200A5C082900923
:100A13009374091204AEED33CC33D0F092D525F0A4
:100A2300A2D57001C313CC13FD22539AEF90F004A7
:100A33007401F0539AFD90F001F053A2FB90F02261
:100A4300F090F002E4F0439A0490F009E054FBF0D4
:100A530090F00CE054FBF0A3E04404120052D28265
:100A630090F026E4F043A24090F029E054BFF090C8
:100A7300F02CE054BFF0A3E054BFF0A3E054BFF068
:100A8300D2A690F031E4F043A30290F039E054FD94
:100A9300F090F03CE054FDF0A3E054FDF0A3E054EB
:100AA300FDF0D2B190F032E4F043A30490F039E0CA
:100AB30054FBF090F03CE054FB120052A3E054FBD3
:100AC300F0D2B290F003E4F0539AF790F009E054B7
:100AD300F7F090F00C120086D28390F0057418F0B2
:100AE300439A2090F009E054DFF090F00CE054DFDB
:100AF300F0A3E054DFF0A3E054DFF0C28590F024CC
:100B03007412F043A21090F029E054EFF090F02C0F
:100B1300E054EFF0A3E054EFF0A3E054EFF0D292EF
:100B230090F030E4F053A3FE90F039E054FEF090DF
:100B3300F03CE054FEF1BEA3E054FEF0D2B090F0DE
:100B4300C07430F090F023E4F043A20890F029E061
:100B530054F7F090F02C120086C2A32212005FE437
:100B6300F58F00000000C2AF512D7F0712006612FF
:100B73000059120098D15612107971CD1218FB1238
:100B83001656F1CDD2AF90002FE0600712005971D5
:100B9300F280F312108090003EE0F47007120059C7
:100BA30091B280F212175E1218F012141F1200593C
:100BB30071F2914F12179F1213CE1211C2121928FC
:100BC3001215231218A9B17480E353D27F53D2BFF5
:100BD30053D2DF43D21075E23075E3F853B2FD43CD
:100BE300AA0243D280C201E4F512F510C20822AF73
:100BF3000FEF64037034750F049000389134E50BE4
:100C03002FFFE50A900038912EE5092FFFE50890A4
:100C1300003A912EE50D2FFFE50C3E90003CF0A32A
:100C2300EFF090002FE0600214F0223EF0A3EFF00B
:100C3300A3E0FCA3E0FDECC4F854F0C868FEEDC4E7
:100C4300540F48FFC3ED9FFFEC9EFE2230015F90DF
:100C53000065E004F0E014B40B005052900C6D7585
:100C6300F003A4C58325F0C58373020C8E020C9197
:100C7300020C93020C95020C98020C9B020C9E0230
:100C83000CA1020CA4020CA7020CAA0210A9E115E4
:100C9300801D0218950217F60218F80218F50212C1
:100CA30099020080021933C201E4900065F022909A
:100CB300003CE0FEA3E0900000F1C57002EC6E6022
:100CC30009900000EEF0A3EFF022900002ECF0A3F5
:100CD300EDF0E4FFEFC3940A748094805065EFB1A4
:100CE3006AB150B160D39DEA9C505590003EE0FE3E
:100CF3006F6050EEF47003EFF02290003EE0B16AB3
:100D0300B150FDD3EB9DEA9C4011900003E09DFDA3
:100D1300900002E09CB157402A801F90003EE060A3
:100D230022B147B160C39DEA9C501890003EE0B1E8
:100D330047C39BFDEC9AB157400990003EEFF02268
:100D43000F80912225E02402F582E43400F583E04C
:100D5300FCA3E022FCD3ED943CEC940022FD900034
:100D630002E0FAA3E0FB2225E02404F582E4340048
:100D730022301154C211900060E0FFA3E06F600FB6
:100D8300EF6003F08009900061EFF0E4FFD1499038
:100D93000061E06026120095EF640460081200957C
:100DA300EF640C70047F01D149120095EF600812C3
:100DB3000095EF64087004E4FFD14990005E1215BA
:100DC300184005E4F0121936200502F1B922C0E0FB
:100DD300C0F0C083C082C0D075D000C000C001C0C5
:100DE30002C003C004C005C006C00775E23075E346
:100DF300F80512C3E512947D748094804014751233
:100E030000D2010510E5109410748094804003759E
:100E130010000511C3E511940F7480948040097587
:100E23001100121072121930121856D007D006D0C2
:100E330005D004D003D002D001D000D0D0D082D0CE
:100E430083D0F0D0E032EF6401700443BF802253BB
:100E5300BF7F22E490003FF090003FE012184E5015
:100E6300327F01D1C5900038F1037F08D1C5EFC4AB
:100E7300F8540FC868FFEEC454F04890003AF0A34A
:100E8300EFF07F04D1C590003CF10390003FE004F4
:100E9300F080C553DF23E4F5DE43DF1C75DEC400B9
:100EA300000000000000000000F50F53B2EF43AA5A
:100EB30010D288C289D2A8F50EC20290002F740BFB
:100EC300F02253DF23EF541033333354F8241C42FE
:100ED300DFEF540F24C0F5DE000000000000000027
:100EE300000043DF02E5DF20E1FB53DF23E4F5DE0F
:100EF30012194ACEC313CE13D8F92DFFEE3CFE22AE
:100F0300EFC4F8540FC868FFEEC454F048F0A3EFE1
:100F1300F022900050E0FEA3E090003AF1C5700289
:100F2300EC6E6009900050ECF0A3EDF02212151066
:100F33004005121508401490003412058D42FE003E
:100F43000020095CD209C2070211A3300902C209B9
:100F53009000501211189000341214747DA07C423A
:100F6300900034F1AB600C400A90003412058D42BE
:100F7300A00000E4FFFE7D347CC2900034F1AB504E
:100F83000A90003412058DC2340000200312E4FFDE
:100F9300FE7D907C42900034F1AB60044002D203AA
:100FA30022FFFE7D34900030E0F8A3E0F9A3E0FADD
:100FB300A3E0FB02033C90005F7428F0A3E054FE1F
:100FC300F022FFE0FCA3E0FD6F2275BE2F75BF0387
:100FD300E4900060F0C21180DDC0E0C0F0C0D075C5
:100FE300D000C000C004C005C006C00712194ACE15
:100FF300C313CE13D8F92DFFEE3CFE53B2EFAD0F62
:10100300ED700C53DF7F75DEC18E0C8F0D8011AD3B
:101013000FED6401700F53DF7F75DEC88E0A8F0BEF
:1010230043DF028011AD0FED6402700A53DF7F7559
:10103300DEC48E088F09050FD007D006D005D00473
:10104300D000D0D0D0F0D0E032300204C202801BF6
:10105300300604C2A68002D2A6300B04C2B28002BC
:10106300D2B2300404C2B18002D2B1750E0032E4B0
:10107300F50F43DF022290003E74FFF022C20AC242
:1010830009C20390003AE0FFA3E0900050CFF0A321
:10109300EFF0900038E0FFA3E0900052CFF0A3EF11
:1010A300F011A9020F15900052E0FEA3E0FF90009B
:1010B30038120FC67002EC6E6009900052ECF0A378
:1010C300EDF022B1104004B1084013900030120536
:1010D3008D42FE0000200A3CD20AC20721A3300A37
:1010E30002C20A9000523118900030120581E47C4C
:1010F30042120FA4600C400A90003012058D423456
:101103000000E47CC2120FA4500A90003012058D37
:10111300C234000022E0FEA3E0FF90003FEEF0A304
:10112300EFF0FDAC063196E4FFFE7D807C461200B5
:10113300A17B007AE879007847120196C004C005C4
:10114300C006C00790003FE0FCA3E0FD3196D00746
:10115300D006D005D00412029F7B007A9879FD78DF
:101163004612029F1207587B007A88798C784512C1
:10117300029F7B627AEB795B783B1200A5319AE49C
:10118300FFFE7D807C3F12029FE4FBFA799578C3D2
:101193000200A5E41203BAA804A905AA06AB072214
:1011A300C200E4FFFE7187C20B90002D7403F0A30D
:1011B300740CF0E4900019F090001FF0A3F02220CB
:1011C3000306200903300A03C20B22900019E0B47E
:1011D3000900400241989011E0F82828730211FB9E
:1011E3000211FE0212980212980212170212220230
:1011F300123502125D02127CC20B22E4FFFEFD7C5B
:10120300C1900034120FAB600250069000197404B1
:10121300F0C20B22E4FF71B49000197405F022D2DE
:101223000B90001C7409F0A37460F090001974060D
:10123300F022D20BE4FFFE7D307C41900034120F8C
:10124300AB40069000197407F090001CE07002A3F5
:10125300E070429000197407F022C20BC390002C77
:10126300E094A490002BE0940150077401F0A37460
:10127300A4F09000197408F02290002BE07002A3F0
:10128300E07012717D120FA860044002D20631AAE9
:1012930030000231A322900054E07002A3E07002F8
:1012A3006160900055E024FFF0900054E034FFF0BB
:1012B30090004FE0B40700400261529012C5F82835
:1012C30028730212DA0212F502130102130D02133C
:1012D3001902132502133190003EE0FF6403600AF4
:1012E300EF64046005EF6405706590004F7401F0CE
:1012F300805D716F505990004F7402F0805171619D
:10130300404D90004F7403F08045716F5041900041
:101313004F7404F080397161403590004F7405F0CB
:10132300802D716F502990004F7406F080217161F8
:10133300401DE490004FF0900054F0A3F0300004FF
:1013430031A3800B7D01E4FFFE71969141D20090A1
:101353000054E07002A3E0700490004FF022D39099
:10136300003DE0948B90003CE0943922C390003D13
:10137300E0946590003CE0940622915FFD7C3F91F0
:10138300500200A571AA75FF1D000000000000E4D3
:10139300F5FB2275FBAA8DFE71AD75FF19000000E8
:1013A300000000E4F5FB2275FBAAEFF5FCEEF5FD6A
:1013B30022EF6401700D90002BE07002A3E0700A2D
:1013C300D20622C20690002B914822917B2003066D
:1013D300200903300A053006378031900019E0D325
:1013E3009401748094804005300625801F200610E8
:1013F30030070280079114120FA840147F01800E5A
:1014030020070D717D120FA860025004E4FF71B430
:1014130022915F7D207C4091500200A59114120F10
:10142300A890002B4008E4F0A37405F080029148D3
:10143300C206C20E31AAC2073000029141229000B7
:10144300197401F0227401F0A3742CF02290003F70
:10145300E0F8A3E0F9A3E0FAA3E0FB2290003EE06A
:101463002421F582E43400F583E0FC1203BF9000ED
:101473003F120581E4FFFE22300E20C20E900018B9
:10148300B1184017E4F0F16E90001EE004F0C3942D
:101493003C748094804004E4F0919F2230072490B0
:1014A300001AE07002A3E0600E90001BE024FFF03E
:1014B30090001AE034FFF090001AE07002A3E0708D
:1014C30002C207300621900019E0701BC390002070
:1014D300E094FF90001FE094FF500CA3E004F07031
:1014E3000690001FE004F0900019E0701790002DA3
:1014F300E0FEA3E0FFC3900020E09F90001FE09E6A
:101503004002914122D3EF9420EE943F22C3EF9403
:10151300E0EE940022E004F0C394087480948022E7
:10152300300304E4FF8042B1A8200504D1B6800E45
:10153300900058E07002A3E060047F0180027F0204
:10154300D1C1300C23C20C900056B118401AE4F0FC
:10155300900058E07002A3E0600E900059E024FF71
:10156300F0900058E034FFF022EF640170107FFF29
:101573007E03B19490005B7402F0A3E4800BE4FF5C
:10158300FEB194E490005BF0A3F0A3F090005AF056
:1015930022AC06EC90F141F0EF90F140F090F1298C
:1015A300E04401F022200D02C14CC20D90005DE029
:1015B30064017060C390005BE09402504EA3E004AA
:1015C300F0700690005BE004F090005BE0FCA3E0A9
:1015D300FDE41203BAC004C005C006C0079000436F
:1015E30012058D40000000D007D006D005D00412AC
:1015F30005BEE4FBFA797F784312029FE4FBFA7994
:101603008078BF1200A51203F38037D14D7402F026
:10161300A3E4F02290005DE06402702DD390005C9F
:10162300E0940090005BE094004019A3E024FFF0F5
:1016330090005BE034FFF0A3E025E0FF90005BE067
:1016430033FEA194D14DF0A3F022E490005DF0901D
:10165300005B22D170D1B6C20CC20DE4900056F0EB
:1016630090005AF0A3F0A3F0A3F0FFA16C90F12037
:10167300E4F090F123740BF090F12A7404F090F1EC
:101683003114F090F13074FFB19FE4FFFEB19490F8
:10169300F127E04401F090F122E04401F090F121C0
:1016A300E04401F090F160E054FEF090F126E04454
:1016B30001F0229000587403F0A37484F022900088
:1016C3003FEFF090005AE06F607290003FE0FD7CC6
:1016D300006402700E7A00F140EA3EC313FEEF137A
:1016E300FF803AED64014C704790005BE07002A309
:1016F300E060347C00F140EC3EFEEF24FFFFEE346B
:10170300FFFEE434FFFDEC34FFFCE47BFFFAF9F861
:101713001204ECE41203B51208511203F390005BB8
:10172300EEF0A3EFF0800990005BE4F0A37446F0C1
:1017330090003FE090005AF090005DF02290F1415C
:10174300E0FE90F140E02400FF2271AA75FF110032
:101753000000000000E4F5FBAFFE22E4FFFEF14DC4
:10176300EF64017003D20022C2002290002BE070CC
:1017730002A3E0600E90002CE024FFF090002BE029
:1017830034FFF090001CE07002A3E0600E90001D97
:10179300E024FFF090001CE034FFF02290003EE0D4
:1017A300FF7E0090004DE07003A3E06F6044900063
:1017B3004DEEF0A3EFF064034E601390004DE0FE96
:1017C300A3E0FF64044E6006EF64054E700A9000C8
:1017D300547401F0A374E0F090004DE07004A3E0B2
:1017E3006409700C20070B200008121898D20722F6
:1017F300C20722300A047F02800C3009047F038071
:10180300053003047F04805730001A900062E0041F
:10181300F0C3940274809480402DE4F0208203D2BC
:101823008222C28222300703C2822290003EE064F9
:10183300097012900062114B400DE4F0208203D234
:101843008222C28222D28222E004F0C394047480F2
:10185300948022900057114B4004E4F0D20D229063
:101863000063E0600314F022900064E0601C2082B7
:1018730006D28214F08002C282900064E09000637A
:1018830060047402F0227412F022D282900064EF9A
:10189300F022D20E2290001A7405F0A374A0F02255
:1018A300900019E0FF22200306200903300A04C236
:1018B30004802C11A3D3EF9401748094804004C25C
:1018C30004801C300504C204801530060AD204903B
:1018D300006674C8F08008900066E07002C20430AD
:1018E3000F0AC20F900066E0600214F022C20FC21A
:1018F3000422D20F22D20C2290006774FEF0C21091
:1019030022900067E025E0F0308304E04401F0908A
:101913000067E0FF7E00647F7002C205EF64804EC3
:101923007002D20522301004C210310422D21022D8
:10193300D2112230051090005FE0600A14F0E070CD
:1019430005A3E04401F022AFDDEF75F004A4FDAC84
:09195300F0AFDC7E00EF78062203
:00000001FF
