:100000000208F902105454000406650CCA132E1994
:10001000931FF8265D2CC23326398B3FF042000037
:10002000FFFF42004D00FF42004F00004100510021
:1000300041005E0041005F00410060004100180087
:1000400041001E004A0021F0EFEEEDECEBEAE9E89A
:10005000E800F0A3E054FBF0223EF0A3EFF0A3E0B1
:10006000FCA3E0FDECC4F854F0C868FEEDC4540FE6
:1000700048FFC3ED9FFFEC9EFE222290003EE0FF72
:10008000640322020E67E054F7F0A3E054F7F0A3F4
:10009000E054F7F022D28222D20E22020FE40204B0
:1000A0005FE86480F8E933E83360110460F0ED3311
:1000B000EC337009E8FCE9FDEAFEEBFF220460DEA8
:1000C000D3EB9FEA9EE99DE8C2E78CF0C2F795F07A
:1000D000400CE8CCF8E9CDF9EACEFAEBCFFB1204FC
:1000E0002A85D0F05804700320D5B3E80470075077
:1000F00002B2D502046992D5EC0460F7E4CCC0E00A
:10010000C398F8603B94186008400DD0E0FB0204EF
:1001100041E4FBFAC9FC8028E830E406E4C9FBE4CA
:10012000CAFCE830E305E4C9CACBFCE85407601018
:10013000F8C3E913F9EA13FAEB13FBEC13FCD8F15B
:1001400030F52FC3E49CFCEF9BFFEE9AFEED99FD8A
:10015000D0E0FBEF4E4D4C701222DB03020466EC44
:100160002CFCEF33FFEE33FEED33FDED30E7EB0219
:100170000441EF2BFFEE3AFEED39FDD0E0FB5013CA
:100180000BBB0003020469ED13FDEE13FEEF13FF3A
:10019000EC13FC020441EC4D6011E8497017ED339B
:1001A000EC3304600DE4FCFFFEFD22E933E8330488
:1001B00070F802045F12042A58046009E4CC248118
:1001C0005006285009020469284003020466C0E072
:1001D000EB4A7044B98006D0E0FB020455EF4E7044
:1001E0001CBD8008EBFFEAFEE9FD80EBE98DF0A481
:1001F000FEE5F002027FE9CDF9EAFEEBFFEF89F0C0
:10020000A4FCE5F0CE89F0A42EFFE435F0CD89F012
:10021000A42DFEE435F08067EF4E7005BD80D780D9
:10022000C3EF8BF0A4ACF0EE8BF0A42CFCE435F023
:10023000F8EF8AF0A42CE5F038FCE433CB8DF0A481
:100240002CFCE5F03BF8EE8AF0A42CFCE5F038F845
:10025000E433CF89F0A42CFCE5F038CF3400CE890C
:10026000F0A42FFFE5F03EFEE433C98DF0A42EFE8E
:10027000E5F039CD8AF0A42FFFE5F03EFEE43DFD28
:1002800033D0E0FB50070BBB000F020469EC2CFCE1
:10029000EF33FFEE33FEED33FD020441020469EC5F
:1002A0005D046005E85904700302045F12042A58D3
:1002B0000460F6EC4860F2EC7004FDFEFF22C860BA
:1002C000DB2481C85009C398600250060204669876
:1002D00050CAF582E9294B4A7005AB820204557574
:1002E000F0007C1A7880C3EF9BEE9AED99400DC325
:1002F000EF9BFFEE9AFEED99FDE842F0DC23ACF0B7
:10030000D0E0FFD0E0FED0E0FDAB8220E7101BEB99
:1003100060BAEC2CFCEF33FFEE33FEED33FD02044C
:1003200041E803F830E705C0F075F000EF2FFFEE6D
:1003300033FEED33FD40B830E7C280AA74F8CC64D8
:1003400080CCC86480C8F58204604FC3EB9FF5F091
:10035000EA9E42F0E99D42F0E89C45F0603C501D69
:10036000E5825FFFE582D313CB5BCBF42B5582FB99
:1003700050280ABA002409B9002008801DE5825BD4
:10038000FBE582D313CF5FCFF4C3132F5582FF5009
:10039000090EBE00050DBD00010CC3EB9FF5F0EA90
:1003A0009E42F0E99D42F0E89C45F06007CC482071
:1003B000E701B3EC2275F020800E75F01080057512
:1003C000F0087D007E007F003392D530D503120502
:1003D0003BEC334010EF33FFEE33FEED33FDEC33F7
:1003E000FCD5F0ED22E5F0247EA2D513CC92E7CD2A
:1003F000CEFF22EDD2E7CD33EC3392D524814006F7
:10040000E4FFFEFDFC22FCE4CFCECDCC24E0501175
:1004100074FF80EDC3CC13CCCD13CDCE13CECF1350
:10042000CF0470F030D5DE02053BE9D2E7C933E8EE
:1004300033F892D5EDD2E7CD33EC33FC5002B2D590
:1004400022EC30E7100FBF000C0EBE00080DBD00FF
:10045000040BEB6014A2D5EB13FCED92E7FD2274C4
:10046000FFFCFDFEFF22E480F8A2D574FF13FC7DA3
:1004700080E480EFED33EC33601004700FED547FB7
:100480007005740292E0227404220422E422ED3307
:10049000EC33600A047003BD8004ECB2E7FC22C0B8
:1004A000E0EFFBEEFAEDF9ECF8120196D0E0F5F092
:1004B000EFFBEEFAEDF9ECF8120555A3A3A3A3E8C0
:1004C000C0E0E9C0E0EAC0E0EBC0E0C0F012019695
:1004D000120571A3A3A3A31200A5D0F0D0E0FBD016
:1004E000E0FAD0E0F9D0E0F8D5F0D422E88FF0A41B
:1004F000CC8BF0A42CFCE98EF0A42CFC8AF0EDA4AB
:100500002CFCEA8EF0A4CDA8F08BF0A42DCC3825DD
:10051000F0FDE98FF0A42CCD35F0FCEB8EF0A4FEBD
:10052000A9F0EB8FF0A4CFC5F02ECD39FEE43CFC52
:10053000EAA42DCE35F0FDE43CFC22C3E49FFFE4A9
:100540009EFEE49DFDE49CFC22E0FCA3E0FDA3E014
:10055000FEA3E0FF22E493FC740193FD740293FE7A
:10056000740393FF22E0F8A3E0F9A3E0FAA3E0FB11
:1005700022E493F8740193F9740293FA740393FBE1
:1005800022ECF0A3EDF0A3EEF0A3EFF022A8828519
:1005900083F0D083D0821205A41205A41205A41200
:1005A00005A4E473E493A3C583C5F0C583C8C582DD
:1005B000C8F0A3C583C5F0C583C8C582C822900012
:1005C0003F120581E4FFFE7D807C3F90003FE0F814
:1005D000A3E0F9A3E0FAA3E0FB12033C700690004D
:1005E0003F02071890003FE0FCA3E0FDA3E0FEA35C
:1005F000E0FF120474FBA3E0FCA3E0FDA3E0FEA374
:10060000E0FF120474FFB40108E4FFFE7D807C3F2C
:1006100022EF64046029EB64046024EBB40130E44D
:10062000FFFEFDFC900043E0F8A3E0F9A3E0FAA38D
:10063000E0FB12033C60084006E4FFFEFDFC229054
:10064000004312058DFFFFFFFF900043020718E4EF
:10065000900047F0A3F0FFFEFDFC90003FE0F8A300
:10066000E0F9A3E0FAA3E0FB12033C505F900043E3
:10067000E0FCA3E0FDA3E0FEA3E0FF1203F3900083
:1006800047EEF0A3EFF0FDCCEECCEC1203BAC8ECD1
:10069000C8C9EDC9CAEECACBEFCB900043E0FCA3BA
:1006A000E0FDA3E0FEA3E0FF1200A1E4FBFAF9F8ED
:1006B00012033C708A90003FE0FCA3E0FDA3E0FE43
:1006C000A3E0FF12048E90003F12058190003FE0EE
:1006D000FCA3E0FDA3E0FEA3E0FF12075890004357
:1006E000E0F8A3E0F9A3E0FAA3E0FB1201961209F7
:1006F000CB900043120581900048E030E017900055
:1007000043E0FCA3E0FDA3E0FEA3E0FF12048E9013
:100710000043120581900043E0FCA3E0FDA3E0FE4E
:10072000A3E0FF223E9248DA3ECCCCCD3F2AAAABD2
:10073000400000003F8000003F9837F03FB504F3D1
:100740003FD744FC3E3172173EB172173F051591F9
:100750003EDE5BD9D2118002C211EDD2E7F8CD3373
:10076000EC3304700BBD800592D502046902045F6E
:1007700040FBD31460F2F5F07C3FEE7A00C3949610
:10078000C8948B40230AC89469C8941A401A0AC8AE
:100790009468C8941F40110AC8945AC89425400808
:1007A00005F07A00CDC2E7CDC0F090004912058176
:1007B000EA2323C0E02434F582E43407F5831205EC
:1007C000711200A5ECC0E0EDC0E0EEC0E0EFC0E0CB
:1007D0001205559000491205651200A1D0E0FBD02A
:1007E000E0FAD0E0F9D0E0B2E7F812029F900049B9
:1007F000120581900724740312049F90004912058A
:1008000065120196D0E0600F2440F582E43407F5CC
:10081000831205711200A5900049120581D0E0C332
:10082000947FFDE49400FC1203BA7B187A7279314C
:10083000783F1201969000491205651200A530110B
:100840000B7BD97A5B79DE783E1201962202045F37
:1008500022EDA2E7D2E7F9EC3340F260F3B4FF08EF
:10086000ED547F70E8020469F82481C2E0C0E0F42E
:100870000428FAC313FCED92E7FD900040120581B5
:10088000EEA2E7E9BA7F02C31334009400FA75F0D0
:1008900091A4E5F013F494FE8AF0A433E5F0332438
:1008A0008CD313FDE492E7FE7F007C3F758302EC5E
:1008B000C0E0F8EDC0E0F9EEC0E0FAEFC0E0FB8583
:1008C00083F090004012054985F08312029FD0E02A
:1008D000FBD0E0FAD0E0F9D0E0F81200A5ED64809A
:1008E000FD30E7011CD583C7ED33CC33F8D0E0A24F
:1008F000E71328C313CC13FD2278FFE4F6D8FD904C
:1009000000007F007E04E4F0A3DFFCDEFA758122A4
:1009100002094E020B69E493A3F8E493A34003F6A3
:100920008001F208DFF48029E493A3F85407240C33
:10093000C8C333C4540F4420C8834004F456800114
:1009400046F6DFE4800B010204081020408090008E
:1009500006E47E019360BCA3FF543F30E509541FB9
:10096000FEE493A360010ECF54C025E060A840B818
:10097000E493A3FAE493A3F8E493A3C8C582C8CA96
:10098000C583CAF0A3C8C582C8CAC583CADFE9DE69
:10099000E780BE33DA929E35B16011377FE5FE39CC
:1009A0002184893AAEC3FF3C1D955B3D6358473EA9
:1009B00075FDF03F3172183F800000C2D502046916
:1009C00002045FBD80FA50F3020466ED33EC330499
:1009D00060F17B3B7AAA79B8783F120196ED33EC4F
:1009E0003392D5247B5011A2D570DB500BED44809F
:1009F00024045004A2D580CEEFFBEEFAEDF9ECF81A
:100A00001203F3EFF582F404FC1203BF1200A5C039
:100A10008290099374091204AEED33CC33D0F09276
:100A2000D525F0A2D57001C313CC13FD22539AEF44
:100A300090F0047401F0539AFD90F001F053A2FB82
:100A400090F022F090F002E4F0439A0490F009E074
:100A500054FBF090F00CE054FBF0A3E044041200CF
:100A600052D28290F026E4F043A24090F029E05464
:100A7000BFF090F02CE054BFF0A3E054BFF0A3E02F
:100A800054BFF0D2A690F031E4F043A30290F039C5
:100A9000E054FDF090F03CE054FDF0A3E054FDF094
:100AA000A3E054FDF0D2B190F032E4F043A30490FF
:100AB000F039E054FBF090F03CE054FB120052A3FC
:100AC000E054FBF0D2B290F003E4F0539AF790F0C8
:100AD00009E054F7F090F00C120086D28390F005F4
:100AE0007418F0439A2090F009E054DFF090F00C75
:100AF000E054DFF0A3E054DFF0A3E054DFF0C28560
:100B000075BE2F75BF0390F0247412F043A21090AD
:100B1000F029E054EFF090F02CE054EFF0A3E05413
:100B2000EFF0A3E054EFF0D29290F030E4F053A352
:100B3000FE90F039E054FEF090F03CE054FEF0A35B
:100B4000E054FEF0A3E054FEF0D2B090F0C0743058
:100B5000F090F023E4F043A20890F029E054F7F07D
:100B600090F02C120086C2A3227596AA759655E4C1
:100B7000F58F00000000C2AF512D120095D1ED128B
:100B8000108191031218171215D0D2AF90002FE0E8
:100B9000600471C480F612108890003EE0F4700486
:100BA000B1C180F51218621217C51213C371C49136
:100BB000261216F812131C121246F1AC12149D12D2
:100BC00017CA80E9AF0FEF64037037750F04900008
:100BD0003812005FE50B2FFFE50A9000381200592C
:100BE000E5092FFFE50890003A120059E50D2FFFA7
:100BF000E50C3E90003CF0A3EFF090002FE0600287
:100C000014F02253D27F53D2BF53D2DF43D2107598
:100C1000E23075E3F853B2FD43AA0243D280C20129
:100C2000E4F511C20822300156900061E004F0E0C2
:100C300014B409005049900C4475F003A4C58325F1
:100C4000F0C58373020C5F020C62020C65020C6734
:100C5000020C6A020C6D020C70020C73020C75021D
:100C6000114E0210AEA1C102009802172002181402
:100C7000021811800B12007AC201E4900061F02288
:100C800090004FE07002A3E06019900050E024FF54
:100C9000F090004FE034FFF0E07002A3E0700490A9
:100CA0000051F030001112007B600CEF640460070B
:100CB000EF64056002F1B5900051E0B40A00400213
:100CC000A1B2900CC9F8282873020CE7020CF802B4
:100CD0000D0A020D1C020D2E020D3E020D4E020DDC
:100CE0005E020D79020D89200502A1B290005174B7
:100CF00001F090004F02148AB1B34002A1AD30055B
:100D000002A1B29000517402F022B1B3500C200540
:100D100002A1B29000517403F022A1ADB1B3500C06
:100D2000300502A1B29000517404F022807FB1B36B
:100D3000500A30057D9000517405F022806FB1B3E8
:100D4000500A20056D9000517406F022805FB1B307
:100D5000500A30055D9000517407F022804F300535
:100D600016D390003DE0948B90003CE094394042D3
:100D70009000517408F022803430050BB1B350322A
:100D80009000517409F022802430052112007B600C
:100D90000AEF64046005EF64057017E4900051F0F9
:100DA0007D01FFFE121872121480D20022E490001E
:100DB00051F022C390003DE0946590003CE0940621
:100DC0002290003CE0FEA3E0900000121384700229
:100DD000EC6E6009900000EEF0A3EFF022900002AC
:100DE000ECF0A3EDF0E4FFEFC3940A74809480501C
:100DF00065EFD1E3D160D1D9D39DEA9C50559000E5
:100E00003EE0FE6F6050EEF47003EFF02290003E83
:100E1000E0D1E3D160FDD3EB9DEA9C40119000034B
:100E2000E09DFD900002E09CD1D0402A801F900000
:100E30003EE06022D157D1D9C39DEA9C5018900062
:100E40003EE0D157C39BFDEC9AD1D0400990003EC3
:100E5000EFF0220F80912225E02402F582E4340095
:100E6000F583E0FCA3E022C0E0C0F0C083C082C0F4
:100E7000D075D000C000C001C002C003C004C005CE
:100E8000C006C00775E23075E3F80511C3E511949B
:100E90007D748094804005751100D2010510C3E572
:100EA00010940F74809480400975100012107A120B
:100EB0001844121780D007D006D005D004D003D034
:100EC00002D001D000D0D0D082D083D0F0D0E03298
:100ED000FCD3ED943CEC940022FD900002E0FAA3D8
:100EE000E0FB2225E02404F582E4340022E49000B3
:100EF0003FF090003FE012177850327F01F15C9094
:100F00000038F19A7F08F15CEFC4F8540FC868FF0D
:100F1000EEC454F04890003AF0A3EFF07F04F15C87
:100F200090003CF19A90003FE004F080C553DF232D
:100F3000E4F5DE43DF1C75DEC400000000000000A5
:100F4000000000F50F53B2EF43AA10D288C289D235
:100F5000A8F50EC20290002F740BF02253DF23EF8E
:100F6000541033333354F8241C42DFEF540F24C0A1
:100F7000F5DE0000000000000000000043DF02E595
:100F8000DF20E1FB53DF23E4F5DE121886CEC31326
:100F9000CE13D8F92DFFEE3CFE22EFC4F8540FC853
:100FA00068FFEEC454F048F0A3EFF022301005C201
:100FB0001012182022C200E4FFFEF1D4C20B9000F0
:100FC0002D7402F0A374D0F0E4900019F090001F8B
:100FD000F0A3F02212185875FF1D00000000000059
:100FE000E4F5FB22C0E0C0F0C0D075D000C000C066
:100FF00004C005C006C007121886CEC313CE13D88E
:10100000F92DFFEE3CFE53B2EFAD0FED700C53DF48
:101010007F75DEC18E0C8F0D8011AD0FED640170F8
:101020000F53DF7F75DEC88E0A8F0B43DF028011FE
:10103000AD0FED6402700A53DF7F75DEC48E088F3A
:1010400009050FD007D006D005D004D000D0D0D0ED
:10105000F0D0E032300204C202801B300604C2A687
:101060008002D2A6300B04C2B28002D2B230040495
:10107000C2B18002D2B1750E0032E4F50F43DF0237
:101080002290003E74FFF022C20AC209C2039000FF
:101090003AE0FFA3E0900052CFF0A3EFF0900038C9
:1010A000E0FFA3E0900054CFF0A3EFF0314E9000AA
:1010B00052E0FEA3E090003A71847002EC6E600989
:1010C000900052ECF0A3EDF02271944004718C403A
:1010D0001490003412058D42FE000020095AD209F6
:1010E000C207020FB5300902C20990005231BB900D
:1010F000003471BC7DA07C429000343140600C40D3
:101100000A90003412058D42A00000E4FFFE7D34F9
:101110007CC29000343140500A90003412058DC2D8
:10112000340000200312E4FFFE7D907C42900034E6
:10113000314060044002D20322FFFE7D3490003033
:10114000E0F8A3E0F9A3E0FAA3E0FB02033C90007F
:1011500054E0FEA3E0FF90003871857002EC6E60F1
:1011600009900054ECF0A3EDF02271944004718CCE
:10117000401490003012058D42FE0000200A3BD240
:101180000AC207020FB5300A02C20A90005431BBEE
:10119000900030120581E47C423139600C400A90A5
:1011A000003012058D42340000E47CC23139500A0F
:1011B00090003012058DC234000022E0FEA3E0FF53
:1011C00090003FEEF0A3EFF0FDAC065139E4FFFED6
:1011D0007D807C461200A17B007AE8790078471276
:1011E0000196C004C005C006C00790003FE0FCA304
:1011F000E0FD5139D007D006D005D00412029F7B04
:10120000007A9879FD784612029F1207587B007A7F
:1012100088798C784512029F7B627AEB795B783B08
:101220001200A5513DE4FFFE7D807C3F12029FE449
:10123000FBFA799578C30200A5E41203BAA804A9C1
:1012400005AA06AB0722200306200903300A03C2C1
:101250000B22900019E0B409004002611B90126457
:10126000F828287302127F02128202131B02131B3A
:1012700002129A0212A50212B80212DF0212FEC274
:101280000B22E4FFFEFD7CC190003431406002502F
:10129000069000197404F0C20B22E4FF716A9000FA
:1012A000197405F022D20B90001C7409F0A374602D
:1012B000F09000197406F022D20BE4FFFE7D307C22
:1012C00041900034314040069000197407F09000BE
:1012D0001CE07002A3E070439000197407F022C272
:1012E0000BC390002CE094A490002BE094015007D5
:1012F0007401F0A374A4F09000197408F022900017
:101300002BE07002A3E070137160313D6004400275
:10131000D206120FBC300003120FB52271FE20035B
:1013200006200903300A05300635802F900019E0A9
:10133000D39401748094804005300623801D2006DC
:101340000F3007028006719C313D40137F01800DF4
:1013500020070C7160313D60025004E4FF716A2285
:1013600071A7FD7C3F71EF0200A5EF6401700D9045
:10137000002BE07002A3E0700AD20622C2069000A1
:101380002B71E722FFE0FCA3E0FD6F22D3EF942056
:10139000EE943F22C3EF94E0EE94002271A77D20EB
:1013A0007C4071EF0200A590003EE02421F582E42C
:1013B0003400F583E0FC1203BF90003F120581E486
:1013C000FFFE22719C313D90002B4008E4F0A37495
:1013D00005F0800271E7C206C20E120FBC9187C2EF
:1013E000073000029180227401F0A3742CF0229047
:1013F000003FE0F8A3E0F9A3E0FAA3E0FB22300EFF
:1014000020C20E90001891924017E4F0D1C79000CE
:101410001EE004F0C3943C748094804004E4F09196
:10142000222230071990001BE024FFF090001AE000
:1014300034FFF0E07002A3E07004C2079187300629
:1014400021900019E0701BC3900020E094FF9000F1
:101450001FE094FF500CA3E004F0700690001FE022
:1014600004F0900019E0701790002DE0FEA3E0FF5B
:10147000C3900020E09F90001FE09E4002918022D8
:101480009000197401F02290001A7405F0A374A062
:10149000F022E004F0C394087480948022300304A6
:1014A000E4FF8042B122200504D130800E90005824
:1014B000E07002A3E060047F0180027F02D13B3034
:1014C0000C23C20C9000569192401AE4F090005800
:1014D000E07002A3E0600E900059E024FFF090005D
:1014E00058E034FFF022EF640170107FFF7E03B1FB
:1014F0000E90005B7402F0A3E4800BE4FFFEB10EDB
:10150000E490005BF0A3F0A3F090005AF022AC0648
:10151000EC90F141F0EF90F140F090F129E04401BE
:10152000F022200D02A1C6C20D90005DE0640170A2
:1015300060C390005BE09402504EA3E004F070069C
:1015400090005BE004F090005BE0FCA3E0FDE4129F
:1015500003BAC004C005C006C00790004312058D41
:1015600040000000D007D006D005D0041205BEE42C
:10157000FBFA797F784312029FE4FBFA798078BF07
:101580001200A51203F38037B1C77402F0A3E4F090
:101590002290005DE06402702DD390005CE0940026
:1015A00090005BE094004019A3E024FFF090005B02
:1015B000E034FFF0A3E025E0FF90005BE033FEA104
:1015C0000EB1C7F0A3F022E490005DF090005B2222
:1015D000B1EAD130C20CC20DE4900056F090005A2E
:1015E000F0A3F0A3F0A3F0FF81E690F120E4F090E7
:1015F000F123740BF090F12A7404F090F13114F09F
:1016000090F13074FFB119E4FFFEB10E90F127E0C4
:101610004401F090F122E04401F090F121E0440116
:10162000F090F160E054FEF090F126E04401F022E9
:101630009000587403F0A37484F02290003FEFF000
:1016400090005AE06F607290003FE0FD7C00640201
:10165000700E7A00D1BAEA3EC313FEEF13FF803A50
:10166000ED64014C704790005BE07002A3E06034D1
:101670007C00D1BAEC3EFEEF24FFFFEE34FFFEE427
:1016800034FFFDEC34FFFCE47BFFFAF9F81204ECC4
:10169000E41203B51208511203F390005BEEF0A3BD
:1016A000EFF0800990005BE4F0A37446F090003FF7
:1016B000E090005AF090005DF02290F141E0FE9041
:1016C000F140E02400FF2290002BE07002A3E060D4
:1016D0000E90002CE024FFF090002BE034FFF090FF
:1016E000001CE07002A3E0600E90001DE024FFF0FB
:1016F00090001CE034FFF02290003EE0FF7E00905E
:10170000004DE07003A3E06F601590004DEEF0A374
:10171000EFF064094E7006200705D20722C20722A7
:10172000300A047F02800C3009047F0380053003F7
:10173000047F04805730001A90005EE004F0C394E8
:101740000274809480402DE4F0308203D28222C261
:101750008222300703C2822290003EE064097012A8
:1017600090005EF175400DE4F0308203D28222C217
:101770008222D28222E004F0C394047480948022F6
:10178000900057F1754004E4F0D20D2290005FE024
:10179000600314F022900060E0601C208206D28278
:1017A00014F08002C282900060E090005F600474D8
:1017B00002F0227412F022D282900060EFF02290A8
:1017C0000019E0FF22C20FC20422200306200903F1
:1017D000300A04C204802CF1BFD3EF9401748094CA
:1017E000804004C204801C300504C2048015300609
:1017F0000AD20490006274C8F08008900062E07021
:1018000002C204300F0AC20F900062E0600214F0BE
:1018100022D20F22D20C2290006374FEF0C210225A
:10182000900063E025E0F0308304E04401F0900094
:1018300063E0FF7E00647F7002C205EF64804E703B
:1018400002D20522D21022115875FF1100000000AB
:101850000000E4F5FBAFFE2275FBAAEFF5FCEEF508
:10186000FD22E4FFFE1147EF64017003D20022C2A3
:10187000002275FBAA8DFE115B75FF1900000000A8
:101880000000E4F5FB22AFDDEF75F004A4FDACF041
:08189000AFDC7E00EF780622B8
:00000001FF
