:100000000205674100140041001500410016000080
:100010007596AA759655E4F58F00000000C2AFD121
:1000200001115ED1AC1161D2AF1138112F80FA30BD
:100030000C05C20C12082722300121900019E0049F
:10004000F0C3940A748094804002E4F0900019E0B8
:1000500024F8600624047004C1CF115D2222D282EC
:100060002290001A74FEF0C20C22900014E004F0FA
:10007000C322D20C22E47128A804A905AA06AB0762
:01008000225D
:10008300E122020396E86480F8E933E8336011045F
:1000930060F0ED33EC337009E8FCE9FDEAFEEBFFB9
:1000A300220460DED3EB9FEA9EE99DE8C2E78CF071
:1000B300C2F795F0400CE8CCF8E9CDF9EACEFAEBBB
:1000C300CFFB12036185D0F05804700320D5B3E849
:1000D3000470075002B2D50203A092D5EC0460F776
:1000E300E4CCC0E0C398F8603B94186008400DD09E
:1000F300E0FB020378E4FBFAC9FC8028E830E4065D
:10010300E4C9FBE4CAFCE830E305E4C9CACBFCE874
:1001130054076010F8C3E913F9EA13FAEB13FBEC85
:1001230013FCD8F130F52FC3E49CFCEF9BFFEE9A50
:10013300FEED99FDD0E0FBEF4E4D4C701222DB0338
:1001430002039DEC2CFCEF33FFEE33FEED33FDEDAC
:1001530030E7EB020378EF2BFFEE3AFEED39FDD0EB
:10016300E0FB50130BBB00030203A0ED13FDEE13E2
:10017300FEEF13FFEC13FC020378EC4D6011E8492A
:100183007017ED33EC3304600DE4FCFFFEFD22E950
:1001930033E8330470F802039612036158046009CC
:1001A300E4CC248150062850090203A0284003020E
:1001B300039DC0E0EB4A7044B98006D0E0FB020324
:1001C3008CEF4E701CBD8008EBFFEAFEE9FD80EB6F
:1001D300E98DF0A4FEE5F0020266E9CDF9EAFEEB53
:1001E300FFEF89F0A4FCE5F0CE89F0A42EFFE435FF
:1001F300F0CD89F0A42DFEE435F08067EF4E700555
:10020300BD80D780C3EF8BF0A4ACF0EE8BF0A42CB1
:10021300FCE435F0F8EF8AF0A42CE5F038FCE43385
:10022300CB8DF0A42CFCE5F03BF8EE8AF0A42CFC7B
:10023300E5F038F8E433CF89F0A42CFCE5F038CFAF
:100243003400CE89F0A42FFFE5F03EFEE433C98DE0
:10025300F0A42EFEE5F039CD8AF0A42FFFE5F03EA1
:10026300FEE43DFD33D0E0FB50070BBB000F020360
:10027300A0EC2CFCEF33FFEE33FEED33FD020378ED
:100283000203A0EC5D046005E859047003020396C1
:10029300120361580460F6EC4860F2EC7004FDFE52
:1002A300FF22C860DB2481C85009C398600250064E
:1002B30002039D9850CAF582E9294B4A7005AB8227
:1002C30002038C75F0007C1A7880C3EF9BEE9AEDE5
:1002D30099400DC3EF9BFFEE9AFEED99FDE842F0C6
:1002E300DC23ACF0D0E0FFD0E0FED0E0FDAB822019
:1002F300E7101BEB60BAEC2CFCEF33FFEE33FEEDA3
:1003030033FD020378E803F830E705C0F075F00029
:10031300EF2FFFEE33FEED33FD40B830E7C280AA86
:1003230075F020800E75F010800575F0087D007E55
:10033300007F003392D530D5031203F8EC3340101D
:10034300EF33FFEE33FEED33FDEC33FCD5F0ED225E
:10035300E5F0247EA2D513CC92E7CDCEFF22E9D2DD
:10036300E7C933E833F892D5EDD2E7CD33EC33FC6C
:100373005002B2D522EC30E7100FBF000C0EBE00C6
:10038300080DBD00040BEB6014A2D5EB13FCED923A
:10039300E7FD2274FFFCFDFEFF22E480F8A2D57482
:1003A300FF13FC7D80E480EFC0E0EFFBEEFAEDF994
:1003B300ECF812017DD0E0F5F0EFFBEEFAEDF9EC8D
:1003C300F8120406A3A3A3A3E8C0E0E9C0E0EAC0CF
:1003D300E0EBC0E0C0F012017D120422A3A3A3A3AB
:1003E30012008CD0F0D0E0FBD0E0FAD0E0F9D0E0FE
:1003F300F8D5F0D422C3E49FFFE49EFEE49DFDE420
:100403009CFC22E493FC740193FD740293FE740339
:1004130093FF22E0F8A3E0F9A3E0FAA3E0FB22E4D0
:1004230093F8740193F9740293FA740393FB22EC27
:10043300F0A3EDF0A3EEF0A3EFF0223E9248DA3EF4
:10044300CCCCCD3F2AAAAB400000003F8000003F48
:100453009837F03FB504F33FD744FC3E3172173E63
:10046300B172173F0515913EDE5BD9D20D8002C2F2
:100473000DEDD2E7F8CD33EC3304700BBD8005925C
:10048300D50203A002039640FBD31460F2F5F07C7F
:100493003FEE7A00C39496C8948B40230AC89469AC
:1004A300C8941A401A0AC89468C8941F40110AC80D
:1004B300945AC89425400805F07A00CDC2E7CDC010
:1004C300F0900010120432EA2323C0E0244EF58298
:1004D300E43404F58312042212008CECC0E0EDC076
:1004E300E0EEC0E0EFC0E012040690001012041624
:1004F300120088D0E0FBD0E0FAD0E0F9D0E0B2E718
:10050300F812028690001012043290043E74031213
:1005130003AB90001012041612017DD0E0600F248B
:100523005AF582E43404F58312042212008C9000FD
:1005330010120432D0E0C3947FFDE49400FC120354
:10054300287B187A727931783F12017D900010125E
:10055300041612008C300D0B7BD97A5B79DE783E62
:1005630012017D2278FFE4F6D8FD9000007F007E23
:1005730004E4F0A3DFFCDEFA7581210205BC02006E
:1005830010E493A3F8E493A34003F68001F208DF99
:10059300F48029E493A3F85407240CC8C333C45448
:1005A3000F4420C8834004F456800146F6DFE480FC
:1005B3000B0102040810204080900003E47E0193A5
:1005C30060BCA3FF543F30E509541FFEE493A360CE
:1005D300010ECF54C025E060A840B8E493A3FAE429
:1005E30093A3F8E493A3C8C582C8CAC583CAF0A37A
:1005F300C8C582C8CAC583CADFE9DEE780BE90F0FA
:1006030002E4F0439A0490F009E054FBF090F00CFC
:10061300E054FBF0A3E04404F0A3E054FBF0D282E7
:1006230090F026E4F043A24090F029E054BFF0900C
:10063300F02CE054BFF0A3E054BFF0A3E054BFF0AC
:10064300D2A690F031E4F043A30290F039E054FDD8
:10065300F090F03CE054FDF0A3E054FDF0A3E0542F
:10066300FDF0D2B190F032E4F043A30490F039E00E
:1006730054FBF090F03CE054FBF0A3E054FBF0A3F8
:10068300E054FBF0D2B290F003E4F0539AF790F009
:1006930009E054F7F090F00CE054F7F0A3E054F7BE
:1006A300F0A3E054F7F0D2832253D27F53D2BF5347
:1006B300D2DF43D21075E23075E3F853B2FD43AA9B
:1006C3000243D280C201E4F509C20822300A047F42
:1006D30002800C3009047F0380053003047F04E1AA
:1006E300F4300015116A9402748094804030E4F071
:1006F300308203D28222C28222300703C282229036
:10070300000FE064097015116A94047480948040AA
:100713000DE4F0308203D28222C28222D28222C02E
:10072300E0C0F0C083C082C0D075D000C000C0015B
:10073300C002C003C004C005C006C00775E230751F
:10074300E3F80509C3E509947D7480948040057539
:100753000900D2010508C3E508940F748094804012
:10076300057508001172D007D006D005D004D00358
:10077300D002D001D000D0D0D082D083D0F0D0E04E
:1007830032900017EEF0A3EFF0FDAC061175E4FF15
:10079300FE7D807C4611887B007AE87900784731BA
:1007A3007DC004C005C006C007900017E0FCA3E0AD
:1007B300FD1175D007D006D005D00451867B007A91
:1007C3009879FD7846518691727B007A88798C7886
:1007D3004551867B627AEB795B783B118C1178E427
:1007E300FFFE7D807C3F5186E4FBFA799578C30157
:1007F3008C900015E0600314F022900016E0601C5A
:10080300208206D28214F08002C282900016E09009
:10081300001560047402F0227412F022D282900058
:1008230016EFF02290001AE025E0F0308304E04454
:1008330001F090001AE0FF7E00647F7002C205EFB2
:0808430064804E7002D2052210
:00000001FF
