:100000000208F902115E54000406650CCA132E1989
:10001000931FF8265D2CC23326398B3FF042000037
:10002000FFFF420054000041004F0042004D00FF1E
:1000300041005E0041005F00410060004100180087
:1000400041001E004A0021F0EFEEEDECEBEAE9E89A
:10005000E800F0A3E054FBF0223EF0A3EFF0A3E0B1
:10006000FCA3E0FDECC4F854F0C868FEEDC4540FE6
:1000700048FFC3ED9FFFEC9EFE2222FFE0FCA3E0C1
:10008000FD6F22020FD0E054F7F0A3E054F7F0A385
:10009000E054F7F022D21022D2822202104302044E
:1000A0005FE86480F8E933E83360110460F0ED3311
:1000B000EC337009E8FCE9FDEAFEEBFF220460DEA8
:1000C000D3EB9FEA9EE99DE8C2E78CF0C2F795F07A
:1000D000400CE8CCF8E9CDF9EACEFAEBCFFB1204FC
:1000E0002A85D0F05804700320D5B3E80470075077
:1000F00002B2D502046992D5EC0460F7E4CCC0E00A
:10010000C398F8603B94186008400DD0E0FB0204EF
:1001100041E4FBFAC9FC8028E830E406E4C9FBE4CA
:10012000CAFCE830E305E4C9CACBFCE85407601018
:10013000F8C3E913F9EA13FAEB13FBEC13FCD8F15B
:1001400030F52FC3E49CFCEF9BFFEE9AFEED99FD8A
:10015000D0E0FBEF4E4D4C701222DB03020466EC44
:100160002CFCEF33FFEE33FEED33FDED30E7EB0219
:100170000441EF2BFFEE3AFEED39FDD0E0FB5013CA
:100180000BBB0003020469ED13FDEE13FEEF13FF3A
:10019000EC13FC020441EC4D6011E8497017ED339B
:1001A000EC3304600DE4FCFFFEFD22E933E8330488
:1001B00070F802045F12042A58046009E4CC248118
:1001C0005006285009020469284003020466C0E072
:1001D000EB4A7044B98006D0E0FB020455EF4E7044
:1001E0001CBD8008EBFFEAFEE9FD80EBE98DF0A481
:1001F000FEE5F002027FE9CDF9EAFEEBFFEF89F0C0
:10020000A4FCE5F0CE89F0A42EFFE435F0CD89F012
:10021000A42DFEE435F08067EF4E7005BD80D780D9
:10022000C3EF8BF0A4ACF0EE8BF0A42CFCE435F023
:10023000F8EF8AF0A42CE5F038FCE433CB8DF0A481
:100240002CFCE5F03BF8EE8AF0A42CFCE5F038F845
:10025000E433CF89F0A42CFCE5F038CF3400CE890C
:10026000F0A42FFFE5F03EFEE433C98DF0A42EFE8E
:10027000E5F039CD8AF0A42FFFE5F03EFEE43DFD28
:1002800033D0E0FB50070BBB000F020469EC2CFCE1
:10029000EF33FFEE33FEED33FD020441020469EC5F
:1002A0005D046005E85904700302045F12042A58D3
:1002B0000460F6EC4860F2EC7004FDFEFF22C860BA
:1002C000DB2481C85009C398600250060204669876
:1002D00050CAF582E9294B4A7005AB820204557574
:1002E000F0007C1A7880C3EF9BEE9AED99400DC325
:1002F000EF9BFFEE9AFEED99FDE842F0DC23ACF0B7
:10030000D0E0FFD0E0FED0E0FDAB8220E7101BEB99
:1003100060BAEC2CFCEF33FFEE33FEED33FD02044C
:1003200041E803F830E705C0F075F000EF2FFFEE6D
:1003300033FEED33FD40B830E7C280AA74F8CC64D8
:1003400080CCC86480C8F58204604FC3EB9FF5F091
:10035000EA9E42F0E99D42F0E89C45F0603C501D69
:10036000E5825FFFE582D313CB5BCBF42B5582FB99
:1003700050280ABA002409B9002008801DE5825BD4
:10038000FBE582D313CF5FCFF4C3132F5582FF5009
:10039000090EBE00050DBD00010CC3EB9FF5F0EA90
:1003A0009E42F0E99D42F0E89C45F06007CC482071
:1003B000E701B3EC2275F020800E75F01080057512
:1003C000F0087D007E007F003392D530D503120502
:1003D0003BEC334010EF33FFEE33FEED33FDEC33F7
:1003E000FCD5F0ED22E5F0247EA2D513CC92E7CD2A
:1003F000CEFF22EDD2E7CD33EC3392D524814006F7
:10040000E4FFFEFDFC22FCE4CFCECDCC24E0501175
:1004100074FF80EDC3CC13CCCD13CDCE13CECF1350
:10042000CF0470F030D5DE02053BE9D2E7C933E8EE
:1004300033F892D5EDD2E7CD33EC33FC5002B2D590
:1004400022EC30E7100FBF000C0EBE00080DBD00FF
:10045000040BEB6014A2D5EB13FCED92E7FD2274C4
:10046000FFFCFDFEFF22E480F8A2D574FF13FC7DA3
:1004700080E480EFED33EC33601004700FED547FB7
:100480007005740292E0227404220422E422ED3307
:10049000EC33600A047003BD8004ECB2E7FC22C0B8
:1004A000E0EFFBEEFAEDF9ECF8120196D0E0F5F092
:1004B000EFFBEEFAEDF9ECF8120555A3A3A3A3E8C0
:1004C000C0E0E9C0E0EAC0E0EBC0E0C0F012019695
:1004D000120571A3A3A3A31200A5D0F0D0E0FBD016
:1004E000E0FAD0E0F9D0E0F8D5F0D422E88FF0A41B
:1004F000CC8BF0A42CFCE98EF0A42CFC8AF0EDA4AB
:100500002CFCEA8EF0A4CDA8F08BF0A42DCC3825DD
:10051000F0FDE98FF0A42CCD35F0FCEB8EF0A4FEBD
:10052000A9F0EB8FF0A4CFC5F02ECD39FEE43CFC52
:10053000EAA42DCE35F0FDE43CFC22C3E49FFFE4A9
:100540009EFEE49DFDE49CFC22E0FCA3E0FDA3E014
:10055000FEA3E0FF22E493FC740193FD740293FE7A
:10056000740393FF22E0F8A3E0F9A3E0FAA3E0FB11
:1005700022E493F8740193F9740293FA740393FBE1
:1005800022ECF0A3EDF0A3EEF0A3EFF022A8828519
:1005900083F0D083D0821205A41205A41205A41200
:1005A00005A4E473E493A3C583C5F0C583C8C582DD
:1005B000C8F0A3C583C5F0C583C8C582C822900012
:1005C0003F120581E4FFFE7D807C3F90003FE0F814
:1005D000A3E0F9A3E0FAA3E0FB12033C700690004D
:1005E0003F02071890003FE0FCA3E0FDA3E0FEA35C
:1005F000E0FF120474FBA3E0FCA3E0FDA3E0FEA374
:10060000E0FF120474FFB40108E4FFFE7D807C3F2C
:1006100022EF64046029EB64046024EBB40130E44D
:10062000FFFEFDFC900043E0F8A3E0F9A3E0FAA38D
:10063000E0FB12033C60084006E4FFFEFDFC229054
:10064000004312058DFFFFFFFF900043020718E4EF
:10065000900047F0A3F0FFFEFDFC90003FE0F8A300
:10066000E0F9A3E0FAA3E0FB12033C505F900043E3
:10067000E0FCA3E0FDA3E0FEA3E0FF1203F3900083
:1006800047EEF0A3EFF0FDCCEECCEC1203BAC8ECD1
:10069000C8C9EDC9CAEECACBEFCB900043E0FCA3BA
:1006A000E0FDA3E0FEA3E0FF1200A1E4FBFAF9F8ED
:1006B00012033C708A90003FE0FCA3E0FDA3E0FE43
:1006C000A3E0FF12048E90003F12058190003FE0EE
:1006D000FCA3E0FDA3E0FEA3E0FF12075890004357
:1006E000E0F8A3E0F9A3E0FAA3E0FB1201961209F7
:1006F000CB900043120581900048E030E017900055
:1007000043E0FCA3E0FDA3E0FEA3E0FF12048E9013
:100710000043120581900043E0FCA3E0FDA3E0FE4E
:10072000A3E0FF223E9248DA3ECCCCCD3F2AAAABD2
:10073000400000003F8000003F9837F03FB504F3D1
:100740003FD744FC3E3172173EB172173F051591F9
:100750003EDE5BD9D2118002C211EDD2E7F8CD3373
:10076000EC3304700BBD800592D502046902045F6E
:1007700040FBD31460F2F5F07C3FEE7A00C3949610
:10078000C8948B40230AC89469C8941A401A0AC8AE
:100790009468C8941F40110AC8945AC89425400808
:1007A00005F07A00CDC2E7CDC0F090004912058176
:1007B000EA2323C0E02434F582E43407F5831205EC
:1007C000711200A5ECC0E0EDC0E0EEC0E0EFC0E0CB
:1007D0001205559000491205651200A1D0E0FBD02A
:1007E000E0FAD0E0F9D0E0B2E7F812029F900049B9
:1007F000120581900724740312049F90004912058A
:1008000065120196D0E0600F2440F582E43407F5CC
:10081000831205711200A5900049120581D0E0C332
:10082000947FFDE49400FC1203BA7B187A7279314C
:10083000783F1201969000491205651200A530110B
:100840000B7BD97A5B79DE783E1201962202045F37
:1008500022EDA2E7D2E7F9EC3340F260F3B4FF08EF
:10086000ED547F70E8020469F82481C2E0C0E0F42E
:100870000428FAC313FCED92E7FD900040120581B5
:10088000EEA2E7E9BA7F02C31334009400FA75F0D0
:1008900091A4E5F013F494FE8AF0A433E5F0332438
:1008A0008CD313FDE492E7FE7F007C3F758302EC5E
:1008B000C0E0F8EDC0E0F9EEC0E0FAEFC0E0FB8583
:1008C00083F090004012054985F08312029FD0E02A
:1008D000FBD0E0FAD0E0F9D0E0F81200A5ED64809A
:1008E000FD30E7011CD583C7ED33CC33F8D0E0A24F
:1008F000E71328C313CC13FD2278FFE4F6D8FD904C
:1009000000007F007E04E4F0A3DFFCDEFA758122A4
:1009100002094E020B69E493A3F8E493A34003F6A3
:100920008001F208DFF48029E493A3F85407240C33
:10093000C8C333C4540F4420C8834004F456800114
:1009400046F6DFE4800B010204081020408090008E
:1009500006E47E019360BCA3FF543F30E509541FB9
:10096000FEE493A360010ECF54C025E060A840B818
:10097000E493A3FAE493A3F8E493A3C8C582C8CA96
:10098000C583CAF0A3C8C582C8CAC583CADFE9DE69
:10099000E780BE33DA929E35B16011377FE5FE39CC
:1009A0002184893AAEC3FF3C1D955B3D6358473EA9
:1009B00075FDF03F3172183F800000C2D502046916
:1009C00002045FBD80FA50F3020466ED33EC330499
:1009D00060F17B3B7AAA79B8783F120196ED33EC4F
:1009E0003392D5247B5011A2D570DB500BED44809F
:1009F00024045004A2D580CEEFFBEEFAEDF9ECF81A
:100A00001203F3EFF582F404FC1203BF1200A5C039
:100A10008290099374091204AEED33CC33D0F09276
:100A2000D525F0A2D57001C313CC13FD22539AEF44
:100A300090F0047401F0539AFD90F001F053A2FB82
:100A400090F022F090F002E4F0439A0490F009E074
:100A500054FBF090F00CE054FBF0A3E044041200CF
:100A600052D28290F026E4F043A24090F029E05464
:100A7000BFF090F02CE054BFF0A3E054BFF0A3E02F
:100A800054BFF0D2A690F031E4F043A30290F039C5
:100A9000E054FDF090F03CE054FDF0A3E054FDF094
:100AA000A3E054FDF0D2B190F032E4F043A30490FF
:100AB000F039E054FBF090F03CE054FB120052A3FC
:100AC000E054FBF0D2B290F003E4F0539AF790F0C8
:100AD00009E054F7F090F00C120086D28390F005F4
:100AE0007418F0439A2090F009E054DFF090F00C75
:100AF000E054DFF0A3E054DFF0A3E054DFF0C28560
:100B000075BE2F75BF0390F0247412F043A21090AD
:100B1000F029E054EFF090F02CE054EFF0A3E05413
:100B2000EFF0A3E054EFF0D29290F030E4F053A352
:100B3000FE90F039E054FEF090F03CE054FEF0A35B
:100B4000E054FEF0A3E054FEF0D2B090F0C0743058
:100B5000F090F023E4F043A20890F029E054F7F07D
:100B600090F02C120086C2A3227596AA759655E4C1
:100B7000F58F00000000C2AF512D120098B1421253
:100B80001184910212184012165BD2AF90002FE030
:100B9000600471C380F612118B90003EE0F4700483
:100BA000917F80F512144A1217ED1213DE71C39172
:100BB00025121783F17DD1A612186D121528121770
:100BC000F280EAAF0FEF64037037750F04900038BE
:100BD00012005FE50B2FFFE50A900038120059E57F
:100BE000092FFFE50890003A120059E50D2FFFE5A7
:100BF0000C3E90003CF0A3EFF090002FE060021458
:100C0000F02253D27F53D2BF53D2DF43D21075E2CA
:100C10003075E3F853B2FD43AA0243D280C201E427
:100C2000F511C20822300156900061E004F0E01492
:100C3000B409005049900C4375F003A4C58325F016
:100C4000C58373020C5E020C61020C63020C650228
:100C50000C68020C6B020C6E020C71020C74021117
:100C6000B4C101801A0217E40210C402183D021830
:100C70003A0212CD12007AC201E4900061F0229093
:100C8000003CE0FEA3E090000012007B7002EC6EDE
:100C90006009900000EEF0A3EFF022900002ECF06B
:100CA000A3EDF0E4FFEFC3940A748094805065EFE5
:100CB000B138B11EB12ED39DEA9C505590003EE054
:100CC000FE6F6050EEF47003EFF02290003EE0B152
:100CD00038B11EFDD3EB9DEA9C4011900003E09DCE
:100CE000FD900002E09CB125402A801F90003EE06C
:100CF0006022B115B12EC39DEA9C501890003EE0D1
:100D0000B115C39BFDEC9AB125400990003EEFF070
:100D1000220F80912225E02402F582E43400F5833D
:100D2000E0FCA3E022FCD3ED943CEC940022FD9087
:100D30000002E0FAA3E0FB2225E02404F582E4347B
:100D40000022E490003FF090003FE01210BC5032CF
:100D50007F01B1B1900038B1EF7F08B1B1EFC4F8B5
:100D6000540FC868FFEEC454F04890003AF0A3EF67
:100D7000F07F04B1B190003CB1EF90003FE004F08F
:100D800080C553DF23E4F5DE43DF1C75DEC40000BD
:100D90000000000000000000F50F53B2EF43AA105E
:100DA000D288C289D2A8F50EC20290002F740BF02F
:100DB0002253DF23EF541033333354F8241C42DF23
:100DC000EF540F24C0F5DE0000000000000000001A
:100DD0000043DF02E5DF20E1FB53DF23E4F5DE1211
:100DE0001119CEC313CE13D8F92DFFEE3CFE22EF1E
:100DF000C4F8540FC868FFEEC454F048F0A3EFF0F5
:100E000022900050E0FEA3E090003A12007B7002B6
:100E1000EC6E6009900050ECF0A3EDF02212142269
:100E2000400512141A401490003412058D42FE0041
:100E30000020095CD209C2070212AE300902C209C1
:100E40009000501212239000341214897DA07C422D
:100E5000900034D198600C400A90003412058D4205
:100E6000A00000E4FFFE7D347CC2900034D1985095
:100E70000A90003412058DC2340000200312E4FFF2
:100E8000FE7D907C42900034D19860044002D203F1
:100E900022FFFE7D34900030E0F8A3E0F9A3E0FAF1
:100EA000A3E0FB02033C200306200903300A03C22F
:100EB0000B22900019E0B409004002E17C900EC4BE
:100EC000F8282873020EDF020EE2020F7C020F7C6C
:100ED000020EFA020F06020F19020F40020F5FC244
:100EE0000B22E4FFFEFD7CC1900034D198600250DB
:100EF000069000197404F0C20B22E4FF12145A90F9
:100F000000197405F022D20B90001C7409F0A37430
:100F100060F09000197406F022D20BE4FFFE7D30E1
:100F20007C41900034D19840069000197407F090ED
:100F3000001CE07002A3E070439000197407F022D7
:100F4000C20BC390002CE094A490002BE0940150BD
:100F5000077401F0A374A4F09000197408F02290B3
:100F6000002BE07002A3E07013F1C4D1956004403F
:100F700002D2061212B53000031212AE221214F978
:100F8000200306200903300A053006378030900020
:100F900019E0D39401748094804005300625801EAA
:100FA0002006103007028007121407D19540147FE5
:100FB00001800D20070DF1C4D19560025005E4FFBA
:100FC00012145A22121474FD7C3F12142A0200A536
:100FD000C0E0C0F0C083C082C0D075D000C000C0E7
:100FE00001C002C003C004C005C006C00775E230DE
:100FF00075E3F80511C3E511947D74809480400574
:10100000751100D2010510C3E510940F748094800F
:10101000400875100011B21200951137D007D006A4
:10102000D005D004D003D002D001D000D0D0D082DF
:10103000D083D0F0D0E03290005711B94004E4F0F2
:10104000D20D22C0E0C0F0C0D075D000C000C004F6
:10105000C005C006C0073119CEC313CE13D8F92D71
:10106000FFEE3CFE53B2EFAD0FED700C53DF7F751A
:10107000DEC18E0C8F0D8011AD0FED6401700F532A
:10108000DF7F75DEC88E0A8F0B43DF028011AD0F44
:10109000ED6402700A53DF7F75DEC48E088F090588
:1010A0000FD007D006D005D004D000D0D0D0F0D0DB
:1010B000E032E4F50F43DF0222E004F0C39404744D
:1010C00080948022300A047F02800C3009047F0360
:1010D00080053003047F04805230001A90005EE0E7
:1010E00004F0C3940274809480402DE4F0208203C5
:1010F000D28222C28222300703C2822290003EE0C6
:101100006409701290005E11B9400DE4F020820372
:10111000D28222C28222D28222AFDDEF75F004A4F5
:10112000FDACF0AFDC7E00EF78062290005FE0605F
:101130000314F022900060E0601C208206D282142A
:10114000F08002C282900060E090005F6004740250
:10115000F0227412F022D282900060EFF02230026E
:1011600004C202801B300604C2A68002D2A6300B45
:1011700004C2B28002D2B2300404C2B18002D2B141
:10118000750E003290003E74FFF022C20AC209C2FE
:101190000390003AE0FFA3E0900050CFF0A3EFF0FF
:1011A000900038E0FFA3E0900052CFF0A3EFF031C1
:1011B000B4020E01900052E0FEA3E0FF900038124E
:1011C000007C7002EC6E6009900052ECF0A3EDF030
:1011D0002291224004911A401390003012058D4252
:1011E000FE0000200A3CD20AC20741AE300A02C209
:1011F0000A9000525123900030120581E47C421283
:101200000E91600C400A90003012058D42340000AF
:10121000E47CC2120E91500A90003012058DC23447
:10122000000022E0FEA3E0FF90003FEEF0A3EFF00D
:10123000FDAC0651A1E4FFFE7D807C461200A17B3F
:10124000007AE879007847120196C004C005C0060C
:10125000C00790003FE0FCA3E0FD51A1D007D006FD
:10126000D005D00412029F7B007A9879FD7846124F
:10127000029F1207587B007A88798C784512029F6A
:101280007B627AEB795B783B1200A551A5E4FFFE07
:101290007D807C3F12029FE4FBFA799578C30200BF
:1012A000A5E41203BAA804A905AA06AB0722C20046
:1012B000E4FFFE71B1C20B90002D7403F0A3740C17
:1012C000F0E4900019F090001FF0A3F02290005479
:1012D000E07002A3E070026194900055E024FFF0FA
:1012E000900054E034FFF090004FE0B4070040025B
:1012F00061869012F9F828287302130E021329024E
:10130000133502134102134D021359021365900065
:101310003EE0FF6403600AEF64046005EF6405705B
:101320006590004F7401F0805D71A3505990004F9B
:101330007402F080517195404D90004F7403F0801D
:101340004571A3504190004F7404F080397195406D
:101350003590004F7405F0802D71A3502990004FF7
:101360007406F080217195401DE490004FF09000CC
:1013700054F0A3F030000451AE800B7D01E4FFFE79
:1013800071C09100D200900054E07002A3E070049C
:1013900090004FF022D390003DE0948B90003CE011
:1013A000943922C390003DE0946590003CE094069F
:1013B0002271D475FF1D000000000000E4F5FB223F
:1013C00075FBAA8DFE71D775FF19000000000000A3
:1013D000E4F5FB2275FBAAEFF5FCEEF5FD22910783
:1013E000120E9590002B4008E4F0A37405F08002E3
:1013F0009112C206C20E51B5C207300002910022FE
:101400009000197401F02291747D207C40912A0291
:1014100000A57401F0A3742CF022D3EF9420EE9475
:101420003F22C3EF94E0EE94002290003FE0F8A347
:10143000E0F9A3E0FAA3E0FB2271D475FF110000EC
:1014400000000000E4F5FBAFFE22E4FFFE9139EF5F
:1014500064017003D20022C20022EF6401700D907B
:10146000002BE07002A3E0700AD20622C2069000B0
:101470002B91122290003EE02421F582E43400F505
:1014800083E0FC1203BF90003F120581E4FFFE22BF
:1014900030072490001AE07002A3E0600E90001B59
:1014A000E024FFF090001AE034FFF090001AE070A2
:1014B00002A3E07002C207300621900019E0701B01
:1014C000C3900020E094FF90001FE094FF500CA315
:1014D000E004F0700690001FE004F0900019E07046
:1014E0001790002DE0FEA3E0FFC3900020E09F9046
:1014F000001FE09E4002910022300E20C20E90009C
:1015000018B11D4017E4F0F15290001EE004F0C342
:10151000943C748094804004E4F0919022E004F0C4
:10152000C394087480948022300304E4FF8042B1A5
:10153000AD200504D1BB800E900058E07002A3E0FE
:1015400060047F0180027F02D1C6300C23C20C9060
:101550000056B11D401AE4F0900058E07002A3E07C
:10156000600E900059E024FFF0900058E034FFF046
:1015700022EF640170107FFF7E03B19990005B74CD
:1015800002F0A3E4800BE4FFFEB199E490005BF06D
:10159000A3F0A3F090005AF022AC06EC90F141F0D9
:1015A000EF90F140F090F129E04401F022200D028B
:1015B000C151C20D90005DE064017060C390005B9A
:1015C000E09402504EA3E004F0700690005BE0044B
:1015D000F090005BE0FCA3E0FDE41203BAC004C09D
:1015E00005C006C00790004312058D40000000D0E2
:1015F00007D006D005D0041205BEE4FBFA797F7847
:101600004312029FE4FBFA798078BF1200A512030F
:10161000F38037D1527402F0A3E4F02290005DE031
:101620006402702DD390005CE0940090005BE09425
:10163000004019A3E024FFF090005BE034FFF0A32A
:10164000E025E0FF90005BE033FEA199D152F0A3CA
:10165000F022E490005DF090005B22D175D1BBC216
:101660000CC20DE4900056F090005AF0A3F0A3F0E5
:10167000A3F0FFA17190F120E4F090F123740BF03E
:1016800090F12A7404F090F13114F090F13074FF6D
:10169000B1A4E4FFFEB19990F127E04401F090F18C
:1016A00022E04401F090F121E04401F090F160E08B
:1016B00054FEF090F126E04401F0229000587403AB
:1016C000F0A37484F02290003FEFF090005AE06F96
:1016D000607290003FE0FD7C006402700E7A00F1C1
:1016E00045EA3EC313FEEF13FF803AED64014C70F0
:1016F0004790005BE07002A3E060347C00F145ECB1
:101700003EFEEF24FFFFEE34FFFEE434FFFDEC3439
:10171000FFFCE47BFFFAF9F81204ECE41203B512C3
:1017200008511203F390005BEEF0A3EFF0800990F4
:10173000005BE4F0A37446F090003FE090005AF0A4
:1017400090005DF02290F141E0FE90F140E0240035
:10175000FF2290002BE07002A3E0600E90002CE0CE
:1017600024FFF090002BE034FFF090001CE07002AA
:10177000A3E0600E90001DE024FFF090001CE03418
:10178000FFF02290003EE0FF7E0090004DE07003ED
:10179000A3E06F604390004DEEF0A3EFF064034EC2
:1017A000601390004DE0FEA3E0FF64044E6006EF7E
:1017B00064054E700A9000547401F0A374E0F09038
:1017C000004DE07004A3E06409700B20070A2000BC
:1017D00007F1D9D20722C2072290001A7405F0A39C
:1017E00074A0F022D20E22900019E0FF22C20FC294
:1017F0000422200306200903300A04C204802D12AB
:1018000017E7D3EF9401748094804004C204801CD5
:10181000300504C204801530060AD20490006274B8
:10182000C8F08008900062E07002C204300F0AC263
:101830000F900062E0600214F022D20F22D20C223C
:1018400090006374FEF0C21022900063E025E0F087
:10185000308304E04401F0900063E0FF7E00647F89
:101860007002C205EF64804E7002D205223010046F
:05187000C21011492225
:00000001FF
