:100000000208910215B722D2102222020FE7EFC494
:10001000F8540FC868FFEEC454F048F0A3EFF02284
:10002000C2952202114EFCD3ED943CEC940022D2F6
:020030000E229E
:100033000215520203F7E86480F8E933E8336011EC
:100043000460F0ED33EC337009E8FCE9FDEAFEEB04
:10005300FF220460DED3EB9FEA9EE99DE8C2E78CB2
:10006300F0C2F795F0400CE8CCF8E9CDF9EACEFA06
:10007300EBCFFB1203C285D0F05804700320D5B335
:10008300E80470075002B2D502040192D5EC046073
:10009300F7E4CCC0E0C398F8603B94186008400DC7
:1000A300D0E0FB0203D9E4FBFAC9FC8028E830E482
:1000B30006E4C9FBE4CAFCE830E305E4C9CACBFCA7
:1000C300E854076010F8C3E913F9EA13FAEB13FBDA
:1000D300EC13FCD8F130F52FC3E49CFCEF9BFFEE4F
:1000E3009AFEED99FDD0E0FBEF4E4D4C701222DBF2
:1000F300030203FEEC2CFCEF33FFEE33FEED33FD86
:10010300ED30E7EB0203D9EF2BFFEE3AFEED39FDBD
:10011300D0E0FB50130BBB0003020401ED13FDEE13
:1001230013FEEF13FFEC13FC0203D9EC4D6011E84F
:10013300497017ED33EC3304600DE4FCFFFEFD2240
:10014300E933E8330470F80203F71203C25804607A
:1001530009E4CC24815006285009020401284003F5
:100163000203FEC0E0EB4A7044B98006D0E0FB0214
:1001730003EDEF4E701CBD8008EBFFEAFEE9FD8046
:10018300EBE98DF0A4FEE5F0020217E9CDF9EAFEF2
:10019300EBFFEF89F0A4FCE5F0CE89F0A42EFFE499
:1001A30035F0CD89F0A42DFEE435F08067EF4E7075
:1001B30005BD80D780C3EF8BF0A4ACF0EE8BF0A429
:1001C3002CFCE435F0F8EF8AF0A42CE5F038FCE4DD
:1001D30033CB8DF0A42CFCE5F03BF8EE8AF0A42C95
:1001E300FCE5F038F8E433CF89F0A42CFCE5F038D3
:1001F300CF3400CE89F0A42FFFE5F03EFEE433C9EF
:100203008DF0A42EFEE5F039CD8AF0A42FFFE5F0A2
:100213003EFEE43DFD33D0E0FB50070BBB000F0275
:100223000401EC2CFCEF33FFEE33FEED33FD020350
:10023300D9020401EC5D046005E85904700302036C
:10024300F71203C2580460F6EC4860F2EC7004FD48
:10025300FEFF22C860DB2481C85009C398600250A6
:10026300060203FE9850CAF582E9294B4A7005AB92
:10027300820203ED75F0007C1A7880C3EF9BEE9A3F
:10028300ED99400DC3EF9BFFEE9AFEED99FDE84219
:10029300F0DC23ACF0D0E0FFD0E0FED0E0FDAB8299
:1002A30020E7101BEB60BAEC2CFCEF33FFEE33FEC0
:1002B300ED33FD0203D9E803F830E705C0F075F02C
:1002C30000EF2FFFEE33FEED33FD40B830E7C28081
:1002D300AA74F8CC6480CCC86480C8F58204604FEB
:1002E300C3EB9FF5F0EA9E42F0E99D42F0E89C459E
:1002F300F0603C501DE5825FFFE582D313CB5BCBFF
:10030300F42B5582FB50280ABA002409B9002008AF
:10031300801DE5825BFBE582D313CF5FCFF4C3136C
:100323002F5582FF50090EBE00050DBD00010CC301
:10033300EB9FF5F0EA9E42F0E99D42F0E89C45F020
:100343006007CC4820E701B3EC2275F020800E75DE
:10035300F010800575F0087D007E007F003392D594
:1003630030D5031204D3EC334010EF33FFEE33FEEA
:10037300ED33FDEC33FCD5F0ED22E5F0247EA2D580
:1003830013CC92E7CDCEFF22EDD2E7CD33EC3392FF
:10039300D524814006E4FFFEFDFC22FCE4CFCECD54
:1003A300CC24E0501174FF80EDC3CC13CCCD13CD1E
:1003B300CE13CECF13CF0470F030D5DE0204D3E9D1
:1003C300D2E7C933E833F892D5EDD2E7CD33EC3336
:1003D300FC5002B2D522EC30E7100FBF000C0EBE6A
:1003E30000080DBD00040BEB6014A2D5EB13FCED6C
:1003F30092E7FD2274FFFCFDFEFF22E480F8A2D504
:1004030074FF13FC7D80E480EFED33EC3360100464
:10041300700FED547F7005740292E022740422047D
:1004230022E422ED33EC33600A047003BD8004EC54
:10043300B2E7FC22C0E0EFFBEEFAEDF9ECF81201B3
:100443002ED0E0F5F0EFFBEEFAEDF9ECF81204ED47
:10045300A3A3A3A3E8C0E0E9C0E0EAC0E0EBC0E0E7
:10046300C0F012012E120509A3A3A3A312003DD0CD
:10047300F0D0E0FBD0E0FAD0E0F9D0E0F8D5F0D44A
:1004830022E88FF0A4CC8BF0A42CFCE98EF0A42CF2
:10049300FC8AF0EDA42CFCEA8EF0A4CDA8F08BF03E
:1004A300A42DCC3825F0FDE98FF0A42CCD35F0FC3C
:1004B300EB8EF0A4FEA9F0EB8FF0A4CFC5F02ECD08
:1004C30039FEE43CFCEAA42DCE35F0FDE43CFC22ED
:1004D300C3E49FFFE49EFEE49DFDE49CFC22E0FC5C
:1004E300A3E0FDA3E0FEA3E0FF22E493FC740193E9
:1004F300FD740293FE740393FF22E0F8A3E0F9A3D3
:10050300E0FAA3E0FB22E493F8740193F9740293F5
:10051300FA740393FB22ECF0A3EDF0A3EEF0A3EF48
:10052300F022A8828583F0D083D08212053C120585
:100533003C12053C12053CE473E493A3C583C5F068
:10054300C583C8C582C8F0A3C583C5F0C583C8C524
:1005530082C82290006E120519E4FFFE7D807C3F65
:1005630090006EE0F8A3E0F9A3E0FAA3E0FB120227
:10057300D4700690006E0206B090006EE0FCA3E01B
:10058300FDA3E0FEA3E0FF12040CFBA3E0FCA3E049
:10059300FDA3E0FEA3E0FF12040CFFB40108E4FF97
:1005A300FE7D807C3F22EF64046029EB64046024B9
:1005B300EBB40130E4FFFEFDFC900072E0F8A3E031
:1005C300F9A3E0FAA3E0FB1202D460084006E4FFBB
:1005D300FEFDFC22900072120525FFFFFFFF900035
:1005E300720206B0E4900076F0A3F0FFFEFDFC90EB
:1005F300006EE0F8A3E0F9A3E0FAA3E0FB1202D453
:10060300505F900072E0FCA3E0FDA3E0FEA3E0FFD7
:1006130012038B900076EEF0A3EFF0FDCCEECCEC62
:10062300120352C8ECC8C9EDC9CAEECACBEFCB90CE
:100633000072E0FCA3E0FDA3E0FEA3E0FF1200399B
:10064300E4FBFAF9F81202D4708A90006EE0FCA37E
:10065300E0FDA3E0FEA3E0FF12042690006E120566
:100663001990006EE0FCA3E0FDA3E0FEA3E0FF12FF
:1006730006F0900072E0F8A3E0F9A3E0FAA3E0FB30
:1006830012012E120963900072120519900077E08F
:1006930030E017900072E0FCA3E0FDA3E0FEA3E0CE
:1006A300FF120426900072120519900072E0FCA359
:1006B300E0FDA3E0FEA3E0FF223E9248DA3ECCCC6D
:1006C300CD3F2AAAAB400000003F8000003F98378F
:1006D300F03FB504F33FD744FC3E3172173EB1728D
:1006E300173F0515913EDE5BD9D2128002C212ED8F
:1006F300D2E7F8CD33EC3304700BBD800592D502FD
:1007030004010203F740FBD31460F2F5F07C3FEEE3
:100713007A00C39496C8948B40230AC89469C894FA
:100723001A401A0AC89468C8941F40110AC8945AF8
:10073300C89425400805F07A00CDC2E7CDC0F090FB
:100743000078120519EA2323C0E024CCF582E434AF
:1007530006F58312050912003DECC0E0EDC0E0EEA2
:10076300C0E0EFC0E01204ED9000781204FD120027
:1007730039D0E0FBD0E0FAD0E0F9D0E0B2E7F812EC
:1007830002379000781205199006BC7403120437DF
:100793009000781204FD12012ED0E0600F24D8F5EA
:1007A30082E43406F58312050912003D90007812A5
:1007B3000519D0E0C3947FFDE49400FC1203527B3F
:1007C300187A727931783F12012E9000781204FD65
:1007D30012003D30120B7BD97A5B79DE783E120131
:1007E3002E220203F722EDA2E7D2E7F9EC3340F21F
:1007F30060F3B4FF08ED547F70E8020401F824812C
:10080300C2E0C0E0F40428FAC313FCED92E7FD90C4
:10081300006F120519EEA2E7E9BA7F02C313340091
:100823009400FA75F091A4E5F013F494FE8AF0A411
:1008330033E5F033248CD313FDE492E7FE7F007C91
:100843003F758302ECC0E0F8EDC0E0F9EEC0E0FADA
:10085300EFC0E0FB8583F090006F1204E185F08325
:10086300120237D0E0FBD0E0FAD0E0F9D0E0F81282
:10087300003DED6480FD30E7011CD583C7ED33CC2B
:1008830033F8D0E0A2E71328C313CC13FD2278FF7B
:10089300E4F6D8FD9000007F007E01E4F0A3DFFCC6
:1008A300DEFA7581220208E6020A31E493A3F8E432
:1008B30093A34003F68001F208DFF48029E493A3B5
:1008C300F85407240CC8C333C4540F4420C88340CE
:1008D30004F456800146F6DFE4800B01020408109D
:1008E3002040809009C5E47E019360BCA3FF543F80
:1008F30030E509541FFEE493A360010ECF54C025D5
:10090300E060A840B8E493A3FAE493A3F8E493A3C4
:10091300C8C582C8CAC583CAF0A3C8C582C8CAC528
:1009230083CADFE9DEE780BE33DA929E35B1601118
:10093300377FE5FE392184893AAEC3FF3C1D955BC1
:100943003D6358473E75FDF03F3172183F8000000C
:10095300C2D50204010203F7BD80FA50F30203FE7D
:10096300ED33EC330460F17B3B7AAA79B8783F121C
:10097300012EED33EC3392D5247B5011A2D570DBDD
:10098300500BED448024045004A2D580CEEFFBEE3F
:10099300FAEDF9ECF812038BEFF582F404FC120381
:1009A3005712003DC08290092B7409120446ED339F
:1009B300CC33D0F092D525F0A2D57001C313CC135C
:1009C300FD2242008D05A054003306650CCA132E88
:1009D30019931FF8265D2CC23326398B3FF0420052
:1009E3002FFFFF42007C00FF42007E000041008099
:1009F30000410090004100910041009200410047F6
:100A03000041004D004A0050F0EFEEEDECEBEAE957
:100A1300E8E800E4F59075EAD475E22875B08A75C4
:100A2300EC0475E48A75C006F5ED75E5062275B22A
:100A33000C00000000C2AF511612002051F2121533
:100A4300DD719912179812144A12105C1200067580
:100A5300B101D2AF90005EE0600775B1015195809E
:100A6300F31215E490006DE0F4700471BA80F5128E
:100A730017DB12178D1212AD5195918112171812AF
:100A8300120DD1D91217C51212DA12174675B10118
:100A930080E6AF0FEF64037034750F049000675165
:100AA300D7E50B2FFFE50A90006751D1E5092FFF2A
:100AB300E50890006951D1E50D2FFFE50C3E90004C
:100AC3006BF0A3EFF090005EE0600214F0223EF0C2
:100AD300A3EFF0A3E0FCA3E0FDECC4F854F0C86876
:100AE300FEEDC4540F48FFC3ED9FFFEC9EFE22753D
:100AF30095C4E490006EF090006EE01210985034AC
:100B03007F06716790006712000E7F077167EFC45D
:100B1300F8540FC868FFEEC454F048900069F0A37E
:100B2300EFF07F02716790006B12000E90006EE091
:100B330004F080C37593847594CFE490006EF090B5
:100B4300006EE0F1DF500600E004F080F2E4F50F00
:100B53005393BFD2AED288D2A8F50EC20290005EE4
:100B6300740BF022EF25E02480F5937594EFE4FFF6
:100B7300EFF1DF5004000F80F7439301E59320E08A
:100B8300FBE4F593AF97EF75F004A4AD967C002DCD
:100B9300FFEC35F0FE2253CEDF43CE0453CEFE539B
:100BA30089FD438901758A28758CBFD28CD2A9C26D
:100BB30001E4F511C2082290006BE0FEA3E090006F
:100BC3002FF1CF7002EC6E600990002FEEF0A3EFCF
:100BD300F022900031ECF0A3EDF0E4FFEFF1D750F9
:100BE30067EFD12C9155D122D39DEA9C50579000A9
:100BF3006DE0FE6F6052EEF47003EFF02290006D33
:100C0300E0D12C9155FDD3EB9DEA9C40129000322C
:100C1300E09DFD900031E09C120026402B80209047
:100C2300006DE06023914CD122C39DEA9C50199042
:100C3300006DE0914CC39BFDEC9A12002640099095
:100C4300006DEFF0220F80942225E02431F582E439
:100C53003400F583E0FCA3E02290008DE07002A352
:100C6300E0601A90008EE024FFF090008DE034FFE6
:100C7300F0E07002A3E07005D20812113D223001AA
:100C83005690008FE004F0F1D74002E4F090008F1B
:100C9300E0B40A005041900CA0F8282873020CBE5F
:100CA300020CC1020CC3020CC5020CC8020CCB021D
:100CB3000CCE020CD1020CD3020CD502160DC13698
:100CC30061BA02002F0210A0021795021792800842
:100CD300808712000AC2012290007EE07002A3E026
:100CE300601990007FE024FFF090007EE034FFF075
:100CF300E07002A3E07004900080F0300010D11A7D
:100D0300600CEF64046007EF64056002F1AF9000CC
:100D130080E0B40A004002C10B900D23F828287329
:100D2300020D41020D52020D64020D76020D88027E
:100D33000D98020DA8020DB8020DD3020DE3200594
:100D430002C10B9000807401F090007E02138BD1DE
:100D53000C4002C106300502C10B9000807402F002
:100D630022D10C500C200502C10B9000807403F0BB
:100D730022C106D10C500C300502C10B90008074C7
:100D830004F022807ED10C500A30057C90008074E0
:100D930005F022806ED10C500A20056C90008074FF
:100DA30006F022805ED10C500A30055C90008074FE
:100DB30007F022804E300516D390006CE0948B90A0
:100DC300006BE0943940419000807408F022803336
:100DD30030050BD10C50319000807409F022802330
:100DE300300520D11A600AEF64046005EF640570D2
:100DF30017E4900080F07D01FFFE1217F0121381BB
:100E0300D20022E4900080F022C390006CE094654D
:100E130090006BE094062290006DE0FF640322FDD6
:100E2300900031E0FAA3E0FB2225E02433F582E4CD
:100E3300340022900081E0FEA3E0900069F1CF70BE
:100E430002EC6E6009900081ECF0A3EDF022121722
:100E5300104005121708401390006312052542FE47
:100E6300000020095BD209C207E1AF300902C209C1
:100E730090008112167D9000631212A67DA07C4221
:100E8300900063D1CB600C400A90006312052542A9
:100E9300A00000E4FFFE7D347CC2900063D1CB5000
:100EA3000A900063120525C2340000200312E4FFF8
:100EB300FE7D907C42900063D1CB60044002D2035C
:100EC30022FFFE7D3490005FE0F8A3E0F9A3E0FA8F
:100ED300A3E0FB0202D4200306200903300A03C265
:100EE3000B22900048E0B409004002E1AE900EF7F7
:100EF300F8282873020F12020F15020FAE020FAE6D
:100F0300020F2D020F39020F4C020F73020F92C210
:100F13000B22E4FFFEFD7CC1900063D1CB60025045
:100F2300069000487404F0C20B22E4FF121277907B
:100F330000487405F022D20B90004B7409F0A3749F
:100F430060F09000487406F022D20BE4FFFE7D307F
:100F53007C41900063D1CB40069000487407F09029
:100F6300004BE07002A3E070429000487407F02247
:100F7300C20BC390005BE094A490005AE09401502C
:100F8300077401F0A374A4F09000487408F0229051
:100F9300005AE07002A3E07012121253D1C8600429
:100FA3004002D206F1B7300002F1AF22C200E4FFE3
:100FB300FE121819C20B90005C7402F0A374D0F0F7
:100FC300E4900048F090004EF0A3F022FFE0FCA371
:100FD300E0FD6F22C3940A7480948022C3940B743F
:100FE30080948022C0E0C0F0C083C082C0D075D09E
:100FF30000C000C001C002C003C004C005C006C0D9
:1010030007758A28758CBF0511C3E511947D74801B
:1010130094804005751100D2010510C3E510940FAB
:10102300748094804008751000118E1200071150CF
:1010330011F5D007D006D005D004D003D002D001DB
:10104300D000D0D0D082D083D0F0D0E032900086D0
:1010530011954004E4F0D20D22C2CCC2CDC28E431E
:1010630089205389EF758DE5E4F58B53CEBF43CECD
:101073000853CEFDD28E53877F5387BF7598504355
:101083008740D2AC900000F0A3F022E4F50F439325
:101093000122E004F0C394047480948022300A0493
:1010A3007F02800C3009047F0380053003047F0432
:1010B300805530001A900090E004F0C394027480CD
:1010C3009480402DE4F0309503C29522D2952230CE
:1010D3000703D2952290006DE0640970129000908E
:1010E3001195400DE4F0309503C29522D29522C2AA
:1010F300952290000AE0600EE014F0E07008900082
:101103000004F0E4A3F022900091E0600314F022C5
:10111300900092E0601C309506C29514F08002D2D4
:1011230095900092E090009160047402F022741292
:10113300F022C295900092EFF022C2ACE4F598C27F
:101143008E53B0FC53ECFC43E40322C0E0C083C0E5
:1011530082C0D075D000C00730992AC29990000C84
:10116300E0FF90000BE0C39F5015E0240EF582E4EE
:101173003400F583E0F59990000BE004F08051C250
:1011830098D29C804B309848859912C298309F0B17
:10119300C29FC29EC29C00D29C8035E512B40D0F43
:1011A3009000007401F0A3E4F090000AF080219015
:1011B3000001E031E15019E02402F582E43400F546
:1011C30083E512F0900001E004F090000A7408F047
:1011D300D007D0D0D082D083D0E032E004F0C394E3
:1011E300087480948022300E20C20E90004731DEB6
:1011F3004017E4F0918E90004DE004F0C3943C74EA
:101203008094804004E4F071232231E92003062016
:101213000903300A053006378031900048E0D39443
:1012230001748094804005300625801F200610300D
:1012330007028007515D120EC840147F01800E2003
:10124300070D5153120EC860025004E4FF51772278
:101253005191FD7C3F516802003D51917D207C40BE
:10126300516802003D90006EE0F8A3E0F9A3E0FAB4
:10127300A3E0FB22EF6401700D90005AE07002A31B
:10128300E0700AD20622C20690005A51D222900080
:101293006DE02450F582E43400F583E0FC1203573B
:1012A30090006E120519E4FFFE22515D120EC890E4
:1012B300005A4008E4F0A37405F0800251D2C2063C
:1012C300C20E120FB77188C20730000271812274F7
:1012D30001F0A3742CF022300304E4FF81627193C4
:1012E300200504913F800E900087E07002A3E06028
:1012F300047F0180027F0291BF300C23C20C900057
:101303008531DE401AE4F0900087E07002A3E060CC
:101313000E900088E024FFF0900087E034FFF02275
:1013230030071990004AE024FFF0900049E034FFB1
:10133300F0E07002A3E07004C207718830062190C8
:101343000048E0701BC390004FE094FF90004EE014
:1013530094FF500CA3E004F0700690004EE004F0FC
:10136300900048E0701790005CE0FEA3E0FFC3909C
:10137300004FE09F90004EE09E400271812290005A
:10138300487401F0229000497405F0A374A0F02280
:10139300200D028135C20D90008CE064017062C3A0
:1013A30090008AE094025050A3E004F0700690008D
:1013B3008AE004F090008AE0FCA3E0FDE41203520B
:1013C300C004C005C006C007900072120525400086
:1013D3000000D007D006D005D0041205567B007A52
:1013E300C0797F7844120237E4FBFA798078BF1220
:1013F300003D12038B8FD32291367402F0A3E4F0E5
:101403002290008CE064027029D390008BE094005A
:1014130090008AE094004015A3E024FFF090008A36
:10142300E034FFF0E0C313A3E013F5D3229136F0C9
:10143300A3F022E490008CF090008A22900087743D
:1014430003F0A37484F0229184913FC20CC20DE493
:10145300900085F0900089F0A3F0A3F0A3F0FFEFD4
:101463006401700D75D3FF90008A7402F0A3E480C9
:1014730008E4F5D390008AF0A3F0A3F0900089F07C
:101483002275D2FFE4F5D375D1F12290005AE070B2
:1014930002A3E0600E90005BE024FFF090005AE0AE
:1014A30034FFF090004BE07002A3E0600E90004C1C
:1014B300E024FFF090004BE034FFF02290006EEF49
:1014C300F0900089E06F606F90006EE0FD7C006437
:1014D30002700FAFD3EF75F002A4FF90008AE5F01E
:1014E300803AED64014C704390008AE07002A3E0FF
:1014F3006030AFD3EF24FFFFE434FFFEE434FFFD9D
:10150300E434FFFCE47BFF7A03F9F8120484E41269
:10151300034D1207E912038B90008AEEF0A3EFF05C
:10152300800990008AE4F0A37446F090006EE09086
:101533000089F090008CF0222099FDC29C90000C51
:10154300EFF090000EE0F59990000B7401F022C0CB
:10155300E0C0D075D000C000C005C006C007AF977B
:101563007E00EF7802C333CE33CED8F9AD962DFF8C
:10157300E43EFE5393BFAD0FED700975938C8E0C53
:101583008F0D800EAD0FED6401700C75938E8E0A76
:101593008F0B439301800EAD0FED640270077593BB
:1015A300848E088F09050FD007D006D005D000D050
:1015B300D0D0E032300204C202801B300604C2C124
:1015C3008002D2C1300B04C2B38002D2B330040410
:1015D300C2C28002D2C2750E003290006D74FFF059
:1015E30022C20AC209C203900069E0FFA3E090008F
:1015F30081CFF0A3EFF0900067E0FFA3E0900083BA
:10160300CFF0A3EFF0D10D020E36900083E0FEA3DE
:10161300E0FF900067120FD07002EC6E600990003B
:1016230083ECF0A3EDF022F1104004F10840149094
:10163300005F12052542FE0000200A3DD20AC207C0
:10164300020FAF300A02C20A900083D17D90005F7F
:10165300120519E47C42120EC4600C400A90005F2C
:1016630012052542340000E47CC2120EC4500A90D5
:10167300005F120525C234000022E0FEA3E0FF90C4
:10168300006EEEF0A3EFF0FDAC06D1FBE4FFFE7DB0
:10169300807C461200397B007AE879007847120192
:1016A3002EC004C005C006C00790006EE0FCA3E096
:1016B300FDD1FBD007D006D005D0041202377B0042
:1016C3007A9879FD78461202371206F07B007A8801
:1016D300798C78451202377B627AEB795B783B121F
:1016E300003DD1FFE4FFFE7D807C3F120237E4FB27
:1016F300FA799578C302003DE4120352A804A905C0
:10170300AA06AB0722D3EF9420EE943F22C3EF94B3
:10171300E0EE94002290006DE0FF7E0090007CE0FC
:101723007003A3E06F601590007CEEF0A3EFF0640C
:10173300094E7006200705D20722C20722900048EF
:10174300E0FF22200306200903300A04C204802C90
:10175300F140D3EF9401748094804004C204801C50
:10176300300504C204801530060AD2049000937435
:10177300C8F08008900093E07002C204300F0AC2E0
:101783000F900093E0600214F022C20FC20422D231
:101793000F22D20C2290009474FEF0C2102290000B
:1017A30094E025E0F0309404E04401F0900094E0EC
:1017B300FF7E00647F7002C205EF64804E7002D228
:1017C3000522301004C210F1A1228F828E8375A7E7
:1017D30001E493FFE4F5A722E4FFFEF1CDD3EF94F8
:1017E30000748094804003D20022C2002212184762
:1017F3008DFC8FFB12183F400575F7018003E4F55C
:10180300F775F26E113200000000E4F5F7F5A7D288
:1018130002A21192AF221147113F400575F70180D3
:1018230003E4F5F775F2E611320000000080DB7582
:10183300F30575F40A75F50975F60622D3EF94FFDF
:0E184300EE940022A2AF9211C2AF75A701224F
:00000001FF
